:100000000C9425010C9456010C9456010C94560145
:100010000C9456010C9456010C9456010C94560104
:100020000C9456010C9456010C9456010C945601F4
:100030000C94AA0C0C9456010C9456010C94560185
:100040000C9456010C940F060C9456010C94560116
:100050000C9456010C9456010C9456010C942710E4
:100060000C9456010C94F7110C94E7120C94560161
:100070000C9456010C9456010C9456010C945601A4
:100080000C943D060C9456010C9456010C945601A8
:100090000C942B120C9426130C9456010C945601BC
:1000A0000C9456010C9456010C946B060C9456015A
:1000B0000C9456010C9456010C9456010C94560164
:1000C0000C9456010C9456010C9456010C945F123A
:1000D0000C9465130C9456010C9493120C94A41375
:1000E0000C945601636D643A00434150413A002A32
:1000F00073657474696E67733A00736D6F6F7468BB
:10010000696E67496E6372696D656E747C006465C3
:1001100061645A6F6E655F6D696E7C0064656164D1
:100120005A6F6E655F6D61787C000000090A0208F5
:100130000B0C0D0706030401000000000000000086
:1001400000000000000000000000000000000000AF
:1001500000000000000011100F000000000000006F
:10016000000000000000000000000000000000008F
:1001700001021020200808102040102040800201B9
:10018000020108040201010204081020408080409E
:10019000201008040201800402018040201008049D
:1001A000020108040201010204081020408001023B
:1001B0000408102040800505050507050808080803
:1001C000020202020A0A08080404040401010101EF
:1001D00001010101030303030303030304070707EA
:1001E0000C0C0C0C0C0C0C0C02020202060606068F
:1001F000060606060B0B0B0B0B0B0B0B000022006D
:10020000250028002B002E003100340002010000E0
:10021000050108010B0100002100240027002A002D
:100220002D003000330001010000040107010A0124
:100230009F0156033605A108770A780BC00C641499
:10024000CD015C03CB08B50B040D11241FBECFEF0D
:10025000D1E2DEBFCDBF00E00CBF13E0A0E0B2E012
:10026000E4EAFAE300E00BBF02C007900D92A83069
:10027000B107D9F717E0A8E0B3E001C01D92A53E91
:10028000B107E1F712E0C0E4D2E000E006C0229737
:100290000109FE010BBF0E946E1CC033D10780E034
:1002A0000807A9F70E9435110C94401D0C9400001A
:1002B00081E080930A038BE093E00E94A90283E12E
:1002C00093E00E94C6076FEF70E083E193E00C9427
:1002D000D407CF93DF931F92CDB7DEB769836BE16D
:1002E00072E0CE0101960E940C02882341F06091D9
:1002F00022037091230383E193E00E94D40748EE28
:1003000053E060E070E08BE093E00E947D02882380
:1003100091F081E090910A03911180E080930A03AB
:10032000882319F06FEF70E002C060E070E083E1B5
:1003300093E00E94D4070F90DF91CF9108950F931F
:10034000CF93DF93CDB7DEB727970FB6F894DEBF14
:100350000FBECDBF6BE172E0CE0101960E94BC17CB
:1003600000E020E04DE250E0BE016F5F7F4F83E18F
:1003700093E00E949D07CE0101960E944B178BE0EF
:1003800093E00E94B90227960FB6F894DEBF0FBE25
:10039000CDBFDF91CF910F91089583E193E00C944D
:1003A0004B17CF93C1E02EC08FE995E00E947111E9
:1003B00090913403911104C0C0933403109235031B
:1003C000909134039923F1F0E0913503E03519F46D
:1003D000109235031EC02E2F30E08B3341F4F9010B
:1003E000EA5CFC4F10821092340381E013C0D90103
:1003F000AA5CBC4F8C93EF5FE0933503F0E0EA5CBE
:10040000FC4F10828FE995E00E94421118161906E0
:100410005CF280E0CF91089580918703882341F0BA
:1004200086E393E00E94B01C21E08653934009F0DC
:1004300020E0822F08951F93CF93DF936EE272E046
:1004400086E393E00E949C1CEC0110E032C0111185
:1004500011C064EE70E08FE995E00E94D815BE01EE
:100460008FE995E00E942F1668E28FE995E00E94DF
:10047000311617C0CE010E947E1CE12FF0E0EE0F76
:10048000FF1FE05EFC4F91838083123028F06CE206
:100490008FE995E00E943116BE018FE995E00E9438
:1004A0002F161F5F6EE272E080E090E00E949C1CBD
:1004B000EC01209761F661E372E08FE995E00E941C
:1004C00062161093200310922103DF91CF911F91A8
:1004D0000895CF93DF93EC01109287030E94D1011E
:1004E000882339F0CE010E941B0281E080938703AC
:1004F00001C080E0DF91CF910895CF92DF92EF921B
:10050000FF920F931F93CF93DF93EC016A017B015E
:100510000E9471100C811D812E813F81601B710B27
:10052000820B930BC616D706E806F90640F40E9424
:1005300071106C837D838E839F8381E001C080E096
:10054000DF91CF911F910F91FF90EF90DF90CF90AF
:100550000895CF93DF93EC010E9471106883798333
:100560008A839B836C837D838E839F83DF91CF916E
:1005700008950C94A902089508952091CB03309119
:10058000CC03F901EE0FFF1FE954FC4F91838083E8
:100590002F5F3F4F3093CC032093CB030895CF932D
:1005A000DF93D82FC92FE82FF92F28E332E02193CA
:1005B000319366E772E0CF010E94BC178D2F9C2F0C
:1005C000DF91CF910C94BD028F929F92AF92BF9218
:1005D000CF92DF92EF92FF920F931F93CF93DF930F
:1005E0001F92CDB7DEB7898357EB852E53E0952E4A
:1005F00003EA13E0A12CB12C23C00E9471106B01FF
:100600007C01D4018D919D914D01DC01ED91FC9116
:100610000280F381E02D60E019950E9471106C1941
:100620007D09161617063CF4F80180819181860F2A
:10063000971F91838083FFEFAF1ABF0A0E5F1F4F92
:100640008091CB039091CC03A816B906B4F20F9019
:10065000DF91CF911F910F91FF90EF90DF90CF909E
:10066000BF90AF909F908F9008950F931F93CF935B
:10067000DF9307EB13E0C0E0D0E00CC0D8018D9110
:100680009D918D01DC01ED91FC910190F081E02DB7
:10069000199521968091CB039091CC03C817D90767
:1006A0006CF3DF91CF911F910F91089566E772E08F
:1006B0008CE893E00C94BC178CE893E00C944B17F7
:1006C0008EED93E00E9419088EEC93E00E94A9023F
:1006D00086ED93E00E94A9021092CD0308958F92B7
:1006E0009F92AF92BF92CF92DF92EF92FF920F93C1
:1006F0001F93CF93DF938C01EB016C3D85E078076E
:100700002CF40D3D85E018070CF07DC00C3D85E014
:1007100018072CF4CD3D85E0D8070CF074C02CED03
:1007200035E0201B310B121613061CF098012C5DCE
:1007300035408CED95E08C1B9D0B181619061CF0AE
:10074000CE018C5D9540281739070CF45EC00C1B58
:100750001D0BB801882777FD8095982F0E94CA1A33
:100760004B015C01EE24E394F12C20E030E0A90180
:10077000682D792D8A2D9B2D0E947A1B181614F056
:10078000E12CF12CCC24C394D12C20E030E0A90141
:10079000682D792D8A2D9B2D0E942B1A87FD02C072
:1007A000C12CD12CEC18FD0817FF03C01195019541
:1007B00011092091100230911102C8012017310750
:1007C0000CF4C901E89E8001E99E100DF89E100D01
:1007D00011240C0F1D1F8FEFE816F80641F48091CD
:1007E0000E0290910F02801791077CF40AC0EA94E0
:1007F000EF2859F480910C0290910D020817190707
:1008000024F48C0102C00CED15E0C801DF91CF91FA
:100810001F910F91FF90EF90DF90CF90BF90AF901E
:100820009F908F900895AF92BF92CF92DF92EF92F8
:10083000FF920F931F93CF93DF931F92CDB7DEB735
:1008400069836CE372E0CE0101960E940C0288235A
:10085000E1F14091220350912303483E63E05607A3
:100860000CF44CC02091240330912503283E83E0F2
:1008700038070CF443C08091260390912703883EEB
:1008800063E09607DCF1413D67E05607BCF5213D8A
:1008900067E036079CF5813D67E096077CF550934D
:1008A00005024093040230930302209302029093C6
:1008B00001028093000280912803909129030197FF
:1008C000E9F481E08093CD0319C06FE372E0CE01BB
:1008D00001960E940C02882329F08EED93E00E947D
:1008E00019080CC065E472E0CE0101960E940C026A
:1008F000882321F08EED93E00E94490842E350E006
:1009000060E070E086ED93E00E947D02882309F4A8
:1009100069C0009104021091050260910A02709171
:100920000B0206171707B9F4209102023091030257
:1009300080910602909107022817390761F42091EF
:10094000000230910102809108029091090228175B
:10095000390709F447C0C8010E946F0390930B0246
:1009600080930A02C0900202D090030260910602B6
:1009700070910702C6010E946F0390930702809353
:100980000602E0900002F09001026091080270916E
:100990000902C7010E946F03909309028093080225
:1009A0008091CD03882371F010930B0200930A020B
:1009B000D0920702C0920602F0920902E092080269
:1009C0001092CD0320910802309109024091060255
:1009D0005091070260910A0270910B028EED93E034
:1009E0000E942E0880910A0290910B022091080229
:1009F00030910902820F931F97FD0196BC017595F6
:100A00006795882777FD8095982F1F921F921F92D8
:100A100024E62F933CE9A32EBB24BA94CB2CDB2CE9
:100A200010EDE12E17E0F12E00E010E028EE33E0AB
:100A300040E050E00E949B180E94CA1A60939F03F6
:100A40007093A0038093A1039093A2030F900F9043
:100A50000F900F900F90DF91CF911F910F91FF900A
:100A6000EF90DF90CF90BF90AF90089528E030E0F6
:100A700047E050E066E070E08EED93E00E94F407FE
:100A800086ED93E00E94B9028EEC93E00C94B902DB
:100A9000EF92FF920F931F93CF93DF938B017A0115
:100AA000EC01DC01A251BC4F8C9187FF05C0DB013A
:100AB00011961C921E9222C02CE02C9FC0012D9FEB
:100AC000900D11242C91AC01420F511D27FD5A9518
:100AD0002091ED0330E04217530784F42C91FC0180
:100AE000E20FF11D27FDFA959F01EE0FFF1FE20FA8
:100AF000F31FEF50FC4F208126FD45C0FE01E2515F
:100B0000FC4F80818F5F80832CE02C9FC0012D9F44
:100B1000900D11242081AC01420F511D27FD5A95E3
:100B20002091ED0330E0421753070CF03EC02081C6
:100B30002C300CF442C039C02081820F911D27FD5A
:100B40009A95FC01EE0FFF1FE80FF91FEF50FC4FC5
:100B5000808161E08F73DF91CF911F910F91FF90A2
:100B6000EF900C94B60E80E49CE904C0F8018081FB
:100B700091810496D70111969C938E93C251DC4FBC
:100B80008FEF888345C02C91820F911D27FD9A9588
:100B9000FC01EE0FFF1FE80FF91FEF50FC4F8081A3
:100BA00060E08F730E94B60EA9CFF8018081918119
:100BB000049680349C49B8F2D9CFD8012D913C914C
:100BC0004081BC01640F711D47FD7A95AB01DB01CB
:100BD000AA0FBB1FA40FB51FAF50BC4F11964D916C
:100BE0005C911297240F351FD70111963C932E93D9
:100BF0002081AC01420F511D27FD5A95DA01AA0F41
:100C0000BB1FA40FB51FAF50BC4F2C9126FD94CF36
:100C1000DF91CF911F910F91FF90EF9008951F9258
:100C20000F920FB60F9211240BB60F922F933F9392
:100C30004F935F936F937F938F939F93AF93BF93E4
:100C4000EF93FF9348E850E064E870E080E090E0C4
:100C50000E944805FF91EF91BF91AF919F918F91B5
:100C60007F916F915F914F913F912F910F900BBEAC
:100C70000F900FBE0F901F9018951F920F920FB6F6
:100C80000F9211240BB60F922F933F934F935F93C4
:100C90006F937F938F939F93AF93BF93EF93FF9344
:100CA00048E950E064E970E081E090E00E94480586
:100CB000FF91EF91BF91AF919F918F917F916F9134
:100CC0005F914F913F912F910F900BBE0F900FBEF0
:100CD0000F901F9018951F920F920FB60F9211242C
:100CE0000BB60F922F933F934F935F936F937F9326
:100CF0008F939F93AF93BF93EF93FF9348EA50E096
:100D000064EA70E082E090E00E944805FF91EF9174
:100D1000BF91AF919F918F917F916F915F914F9113
:100D20003F912F910F900BBE0F900FBE0F901F9011
:100D300018952091ED032432A0F4FC012083822F2A
:100D40008F5F8093ED03822F90E0FC01EE0FFF1F79
:100D5000E80FF91FEF50FC4F88EB9BE092838183F3
:100D600008952FEFFC0120830895DF92EF92FF9208
:100D70000F931F93CF93DF93EC01D62E7A01890155
:100D80008881843208F084C061E08D2D0E947E0E3F
:100D90008881A82FB0E0FD01EE0FFF1FEA0FFB1FB7
:100DA000EF50FC4F2D2D2F739081907C922B9083D0
:100DB00060E272E06E197F0977FF02C06D5F7F4FBE
:100DC0007595679575956795698340E659E0401B71
:100DD000510B57FF02C04D5F5F4F55954795559595
:100DE00047954A836CE00E94F11B9CE0899FB0010B
:100DF000112420E030E0A901460F571FFA01EE0F41
:100E0000FF1FE40FF51FEF50FC4F908196FD34C09B
:100E10002F5F3F4F2C30310571F73CC0109280009E
:100E200082E0809381001092850010928400B19A34
:100E300080916F00826080936F001EC081309105A9
:100E400069F41092900082E08093910010929500D6
:100E50001092940088BB809371000EC0029761F4D9
:100E60001092A00082E08093A1001092A500109241
:100E7000A40089BB80937200888190E0FC01EE0F92
:100E8000FF1FE80FF91FEF50FC4F808180648083C3
:100E9000888104C090E0009709F2D0CFDF91CF9114
:100EA0001F910F91FF90EF90DF90089520E639E0B9
:100EB00040E252E00C94B506FC01808190E0FC0118
:100EC000EE0FFF1FE80FF91FEF50FC4F80818F7B63
:100ED00080830895FC018081843270F5918128E837
:100EE00030E0291B310997FD3395220F331F220F64
:100EF000331F621773077CF0928128E532E0291BCB
:100F0000310997FD3395220F331F220F331F6217CC
:100F100073070CF49B014FB7F89490E0FC01EE0FBF
:100F2000FF1FE80FF91FEF50FC4F22503109220F2D
:100F3000331F328321834FBF0895AF92BF92CF9268
:100F4000DF92EF92FF920F93CF93DF931F92CDB773
:100F5000DEB75C017B016A0166E772E029830E94CB
:100F6000BC17B701C5010E94D917F501D086C78209
:100F70002981238704870F90DF91CF910F91FF90F4
:100F8000EF90DF90CF90BF90AF900895FC018385E4
:100F9000882349F08485882311F060E001C061E076
:100FA00087810C947E0E08950F931F93CF93DF9348
:100FB000EC018B018C85811110C08B85882351F049
:100FC0006115710511F460E001C061E08F810E943C
:100FD000B60E03C08F810E94360D1A870987DF91F4
:100FE000CF911F910F910895CF92DF92EF92FF92D0
:100FF0000F931F93CF93DF93EC018B016A0179016B
:101000000E949906CE0103960E949906CE0106968B
:101010000E9499061A870987DC86CB86FE86ED86B4
:10102000DF91CF911F910F91FF90EF90DF90CF90C4
:101030000895CF93DF93EC0169857A850E94560766
:101040006B857C85CE0103960E9456076D857E8553
:10105000CE010696DF91CF910C945607EF92FF9246
:101060000F931F93CF93DF93EC017A0189010E94C4
:101070006A07B701CE0103960E946A07B801CE0144
:101080000696DF91CF911F910F91FF90EF900C94F6
:101090006A07EF92FF920F931F93CF93DF93EC01B8
:1010A0006CED75E00E946A077E0183E0E80EF11C9A
:1010B0006CED75E0C7010E946A078E010A5F1F4F41
:1010C0006CED75E0C8010E946A07CE010E945C07C2
:1010D000C7010E945C07C801DF91CF911F910F915A
:1010E000FF90EF900C945C0780916A0490916B04E0
:1010F000826090936B0480936A048DE594E00E9473
:10110000C60760E070E08DE594E00C94D407CF93BF
:10111000DF931F92CDB7DEB7698369E572E0CE0138
:1011200001960E940C02882341F060912203709185
:1011300023038DE594E00E94D4070F90DF91CF91B7
:1011400008950F93CF93DF93CDB7DEB727970FB6F0
:10115000F894DEBF0FBECDBF69E572E0CE01019607
:101160000E94BC1700E020E04CE250E0BE016F5F3F
:101170007F4F8DE594E00E949D07CE0101960E946D
:101180004B1727960FB6F894DEBF0FBECDBFDF9189
:10119000CF910F9108958DE594E00C944B1708952D
:1011A000CF93DF93CDB7DEB72F970FB6F894DEBF9E
:1011B0000FBECDBF6F8767E672E0CE010F960E942B
:1011C0000C02882309F482C06FEE70E08FE995E08D
:1011D0000E94D8156AEF70E08FE995E00E94D8155B
:1011E00060911002709111024AE0CE0101960E94B6
:1011F0001418BE016F5F7F4FCE0108960E94F01752
:1012000065E772E0CE0108960E946D18BC018FE977
:1012100095E00E94F915CE0108960E944B17CE0169
:1012200001960E944B176EE071E08FE995E00E94F5
:10123000D81560910E0270910F024AE0CE0101961E
:101240000E941418BE016F5F7F4FCE0108960E9466
:10125000F01765E772E0CE0108960E946D18BC0198
:101260008FE995E00E94F915CE0108960E944B1770
:10127000CE0101960E944B176CE171E08FE995E079
:101280000E94D81560910C0270910D024AE0CE01C7
:1012900001960E941418BE016F5F7F4FCE01089621
:1012A0000E94F01762E372E0CE0108960E946D186A
:1012B000BC018FE995E00E944E16CE0108960E946F
:1012C0004B17CE0101960E944B173EC067E772E0B4
:1012D000CE010F960E940C028823B1F069EE70E0F7
:1012E0008FE995E00E94D81560916A0470916B04B3
:1012F0004AE050E08FE995E00E9443176BE38FE9E5
:1013000095E00E94311620C06CE772E0CE010F9686
:101310000E940C028823C1F0809122039091230344
:1013200090931102809310028091240390912503E1
:1013300090930F0280930E028091260390912703D1
:1013400090930D0280930C022F960FB6F894DEBF97
:101350000FBECDBFDF91CF91089569E070E080E7C7
:1013600094E00E94560780916A0490916B04886013
:1013700090936B0480936A0408958F929F92AF922A
:10138000BF92CF92DF92EF92FF920F931F93CF9372
:10139000DF93EB016C3D25E072072CF48D3D25E0D9
:1013A00092070CF064C08C3D25E092072CF4CD3DF3
:1013B00025E0D2070CF05BC08C010C1B1D0BB801A3
:1013C000882777FD8095982F0E94CA1A4B015C01EF
:1013D000EE24E394F12C20E030E0A901682D792D72
:1013E0008A2D9B2D0E947A1B181614F0E12CF12CEB
:1013F000CC24C394D12C20E030E0A901682D792DB4
:101400008A2D9B2D0E942B1A87FD02C0C12CD12C46
:10141000EC18FD08C8010996439730F417FF06C081
:1014200011950195110902C00AE010E0E09E9001BB
:10143000E19E300DF09E300D11242C0F3D1F8FEFDB
:10144000E816F80641F480910E0290910F0282177F
:1014500093077CF40AC0EA94EF2859F480910C02B7
:1014600090910D022817390724F49C0102C02CED3D
:1014700035E0C901DF91CF911F910F91FF90EF905F
:10148000DF90CF90BF90AF909F908F900895CF93B3
:10149000DF931F92CDB7DEB7698362E972E0CE01B8
:1014A00001960E940C02882341F0809122039091C2
:1014B000230390936F0480936E0480916E04909147
:1014C0006F0460916C0470916D048617970759F052
:1014D0000E94BD0990936D0480936C04BC0180E769
:1014E00094E00E946A070F90DF91CF91089580E702
:1014F00094E00C94990686E994E00E94A90286E89B
:1015000094E00E94A9028EE894E00E94A90283E779
:1015100094E00E94C60761E070E083E794E00E94D7
:10152000D407EEE9F4E01192119284E0EA3DF80765
:10153000D1F708950E940D0DBC01882777FD809595
:10154000982F0E94CA1A20E030E040EA51E40E943D
:101550007E1B20E030EC4FE754E40E942F1A20E07D
:1015600030E0A9010E94C71908950E940D0DBC0129
:10157000882777FD8095982F0E94CA1A9B01AC019D
:101580000E94C71920E030EC4FE754E40E942F1A64
:1015900020E030E0A9010E94C7190895CF93DF939E
:1015A00044E650E060E070E086E994E00E947D024D
:1015B000882309F44DC0C0918404D0918504CC0FD8
:1015C000DD1FC256DB4F80918204909183042881F5
:1015D0003981821B930B909383048093820486E36A
:1015E00090E00E94B50A0E94971A7983688361E0AF
:1015F00070E080E090E00E94AD1020918404309172
:101600008504F901EE0FFF1FE256FB4F8091820423
:101610009091830440815181840F951F909383049E
:10162000809382042F5F3F4F2E3131052CF430938D
:1016300085042093840404C01092850410928404CD
:101640006EE170E00E94FD1B709381046093800442
:1016500048EE53E060E070E08EE894E00E947D0286
:1016600044E650E060E070E086E894E00E947D028D
:101670008823D9F18AE390E00E949A0A6093970345
:10168000709398038093990390939A0360918004D8
:1016900070918104882777FD8095982F0E94CA1A3F
:1016A00060939303709394038093950390939603B0
:1016B0000E94CD0BBC01882777FD8095982F0E9452
:1016C000CA1A60939B0370939C0380939D0390932D
:1016D0009E030E9471100E94C81A60938803709341
:1016E000890380938A0390938B03DF91CF910895B0
:1016F000EF92FF920F93CF93DF93CDB7DEB727978B
:101700000FB6F894DEBF0FBECDBF86E994E00E940D
:10171000B9028EE894E00E94B90286E894E00E9443
:10172000B902E0901202F09013026FE972E0CE016C
:1017300001960E94BC1700E021E0A701BE016F5F87
:101740007F4F83E794E00E949D07CE0101960E949F
:101750004B1727960FB6F894DEBF0FBECDBFDF91B3
:10176000CF910F91FF90EF90089583E794E00C9450
:101770004B17E091E307F091E40720E030E009C067
:101780002E5F3F4F80819181280F391F0280F381A6
:10179000E02D3097A9F7C90108950F931F93CF93B8
:1017A000DF931F921F92CDB7DEB78091E107909132
:1017B000E2078E010F5F1F4F009729F4055E174067
:1017C0001A8309830AC0081B190B1A8309830E9414
:1017D000B90B800F911F9A83898389819A810F9019
:1017E0000F90DF91CF911F910F91089528E332E080
:1017F000FC0121933193CF010C944B178BE992E0BC
:101800009093ED048093EC048CEE94E00E94F60B30
:101810008EE492E09093F8048093F70487EF94E0CD
:101820000E94F60B8AE292E09093030580930205F2
:1018300082E095E00E94F60B83E692E090930E051D
:1018400080930D058DE095E00E94F60B8CEA92E006
:10185000909319058093180588E195E00E94F60B96
:101860008EE892E0909324058093230583E295E02F
:101870000C94F60BA8958BEE94E00E94690280E030
:101880000E94E4020895F89484B7877F84BFA895E6
:10189000E0E6F0E080818861808389EF808378943E
:1018A0000895F894A89584B7877F84BFE0E6F0E0B8
:1018B0008081886180831082789408950E94510C01
:1018C0000E94430C40E052EC61E070E08FE995E04B
:1018D0000E94E31360E070E08FE295E00E94060D45
:1018E00080932E05813041F561E070E08FE295E054
:1018F0000E94060D8093EA0440E060E070E08FE211
:1019000095E00E94090D60EB72E08FE995E00E947E
:10191000621663EF72E08FE995E00E942F166091E6
:10192000EA044AE050E08FE995E00E94DF166BE39D
:101930008FE995E00E94311661E08DE00E947E0EF5
:1019400082EE94E00E94A9028AED94E00E94A9022E
:101950000C9435031F920F920FB60F9211244091F1
:10196000EA044F5F61E070E08FE295E00E94090DAC
:1019700041E060E070E08FE295E00E94090DFFCF4A
:1019800083E295E00E94CF028EE892E090932405D6
:101990008093230588E195E00E94CF028CEA92E0D3
:1019A00090931905809318058DE095E00E94CF0271
:1019B00083E692E090930E0580930D0582E095E01A
:1019C0000E94CF028AE292E0909303058093020581
:1019D00087EF94E00E94CF028EE492E09093F804A7
:1019E0008093F7048CEE94E00E94CF028BE992E0A2
:1019F0009093ED048093EC0482EE94E00E94B9028F
:101A00008AED94E00C94B9020C94FE0BCB010C947B
:101A10001A1DCB01642F0C94221D863308F08653C7
:101A200020917B00982F9870277F922B90937B00BA
:101A300087702091140240E4249F90011124822B8E
:101A400080937C0080917A00806480937A008091FA
:101A50007A0086FDFCCF2091780030917900932F99
:101A600080E0AC01422B9A01C90108951F93CF93E6
:101A7000DF93182FEB0161E00E947E0E209711F496
:101A800060E004C0CF3FD10539F461E0812FDF91E0
:101A9000CF911F910C94B60EE12FF0E0E65DFE4F62
:101AA000E491E93009F460C098F4E430C9F138F405
:101AB000E23039F158F5E13009F0ABC01DC0E73034
:101AC00009F440C008F046C0E63009F0A2C032C0B8
:101AD000ED3009F476C030F4EB3009F459C008F069
:101AE00066C04CC0E03109F480C0E13109F487C020
:101AF000EF3009F08EC06FC084B5806884BDC7BD6B
:101B00008DC084B5806284BDC8BD88C080918000CE
:101B1000806880938000D0938900C09388007EC045
:101B200080918000806280938000D0938B00C0936E
:101B30008A0074C08091B00080688093B000C09328
:101B4000B3006CC08091B00080628093B000C093FD
:101B5000B40064C080919000806880939000D0931E
:101B60009900C09398005AC0809190008062809341
:101B70009000D0939B00C0939A0050C08091900039
:101B8000886080939000D0939D00C0939C0046C0D5
:101B90008091A00080688093A0008091A0008F7B3E
:101BA0008093A000D093A900C093A80037C0809173
:101BB000A00080628093A000D093AB00C093AA00E5
:101BC0002DC08091A00088608093A000D093AD00CC
:101BD000C093AC0023C080912001806880932001D5
:101BE000D0932901C093280119C0809120018062FF
:101BF00080932001D0932B01C0932A010FC08091C4
:101C00002001886080932001D0932D01C0932C0186
:101C100005C0C038D1050CF038CF32CFDF91CF915D
:101C20001F910895893009F443C088F4843029F164
:101C300038F4823059F1E8F4813009F05EC023C0F5
:101C4000873061F188F5863009F057C023C08D30A8
:101C500009F440C020F48B30A9F1C0F52DC08031CB
:101C600009F442C0813109F443C08F3009F045C006
:101C700037C0809180008F7703C0809180008F7D76
:101C800080938000089584B58F7702C084B58F7DDE
:101C900084BD08958091B0008F7703C08091B0001B
:101CA0008F7D8093B0000895809190008F7707C05A
:101CB000809190008F7D03C080919000877F8093FA
:101CC000900008958091A0008F7707C08091A000B8
:101CD0008F7D03C08091A000877F8093A00008952E
:101CE000809120018F7707C0809120018F7D03C0F4
:101CF00080912001877F809320010895CF93DF9307
:101D000090E0FC01E059FE4F4491FC01EA54FE4F83
:101D10008491882341F190E0880F991FFC01EA5ECD
:101D2000FD4F25913491D90184509E4FFC0185913E
:101D30009491C82FD92F9FB7F8948C91611106C048
:101D4000409584238C938881842308C0623041F4B9
:101D5000242F209582238C938881842B888302C032
:101D6000842B8C939FBFDF91CF9108950F931F9386
:101D7000CF93DF931F92CDB7DEB7282F30E0F90164
:101D8000E65DFE4F8491F901E059FE4F1491F9018F
:101D9000EA54FE4F04910023D1F0882321F0698397
:101DA0000E94120E6981E02FF0E0EE0FFF1FE45059
:101DB000FE4F85919491DC019FB7F8948C9161114D
:101DC00003C01095812301C0812B8C939FBF0F907E
:101DD000DF91CF911F910F9108950F931F93CF9390
:101DE000DF938230910510F482E090E0E091E30708
:101DF000F091E40720E030E0C0E0D0E023C0408173
:101E0000518148175907A8F04817590761F4828192
:101E10009381209719F09B838A832EC09093E407C7
:101E20008093E30729C02115310529F04217530794
:101E300010F0A90102C0BE01DF0102811381EF0190
:101E40009A01F8013097D9F62115310509F1281BBF
:101E5000390B2430310590F412968D919C91139793
:101E60006115710521F0FB019383828304C0909377
:101E7000E4078093E307FD01329644C0FD01E20FC1
:101E8000F31F81939193225031092D933C933AC0D3
:101E90002091E1073091E207232B41F420911702B2
:101EA000309118023093E2072093E1072091150248
:101EB000309116022115310541F42DB73EB74091FE
:101EC000190250911A02241B350BE091E107F091A1
:101ED000E207E217F307A0F42E1B3F0B2817390780
:101EE00078F0AC014E5F5F4F2417350748F04E0F76
:101EF0005F1F5093E2074093E1078193919302C0E3
:101F0000E0E0F0E0CF01DF91CF911F910F910895B4
:101F1000EF92FF920F931F93CF93DF93009709F4F3
:101F20008FC0DC01129713961C921E921297E090BC
:101F3000E307F090E407E114F10489F42D913C915A
:101F40001197280F391F8091E1079091E2078217BE
:101F5000930789F5B093E207A093E10771C0E70109
:101F600020E030E001C0EA01CA17DB0738F44A81FB
:101F70005B819E0141155105B1F722C0BC01625041
:101F80007109FB01D383C28300811181AC01400F31
:101F9000511F4C175D0761F448815981400F511F53
:101FA0004E5F5F4F518340834A815B8153834283FD
:101FB0002115310529F4B093E407A093E30740C04D
:101FC000F901B383A283E90169917991C60FD71F03
:101FD000AC17BD0779F4DC015E914E91460F571F97
:101FE0004E5F5F4F5183408312968D919C91139762
:101FF00093838283A0E0B0E002C0D7017C01F701A7
:10200000828193810097C9F7C701029620813181AF
:10201000820F931F2091E1073091E20728173907BB
:1020200079F4109729F41092E4071092E30704C0A2
:1020300013961C921E921297F092E207E092E1072B
:10204000DF91CF911F910F91FF90EF9008951F9214
:102050000F920FB60F9211242F933F938F939F935C
:10206000AF93BF938091300590913105A0913205D7
:10207000B091330530913805232F2D5F2D3720F493
:102080000196A11DB11D05C0232F2A570296A11D3F
:10209000B11D209338058093300590933105A093AE
:1020A0003205B09333058091340590913505A091A8
:1020B0003605B09137050196A11DB11D80933405F9
:1020C00090933505A0933605B0933705BF91AF9136
:1020D0009F918F913F912F910F900FBE0F901F9066
:1020E00018950F931F938FB7F894009130051091B6
:1020F000310520913205309133058FBFB801C901F8
:102100001F910F9108950F931F939FB7F89400911B
:10211000340510913505209136053091370586B587
:10212000A89B06C08F3F21F00F5F1F4F2F4F3F4FDF
:102130009FBF322F212F102F0027080F111D211DA7
:10214000311D42E0000F111F221F331F4A95D1F7A6
:10215000B801C9011F910F910895CF92DF92EF92BC
:10216000FF92CF93DF936B017C010E948310EB0100
:102170000EC00E9483106C1B7D0B683E734038F0CC
:1021800081E0C81AD108E108F108C851DC4FC11438
:10219000D104E104F10469F7DF91CF91FF90EF9052
:1021A000DF90CF900895789484B5826084BD84B523
:1021B000816084BD85B5826085BD85B5816085BD42
:1021C000EEE6F0E0808181608083E1E8F0E010825B
:1021D000808182608083808181608083E0E8F0E09C
:1021E000808181608083E1EBF0E080818460808386
:1021F000E0EBF0E0808181608083E1E9F0E08081C4
:1022000082608083808181608083E0E9F0E080816A
:1022100081608083E1EAF0E0808182608083808158
:1022200081608083E0EAF0E0808181608083E1E288
:10223000F1E0808182608083808181608083E0E240
:10224000F1E0808181608083EAE7F0E08081846052
:1022500080838081826080838081816080838081AF
:10226000806880831092C10008950E94D3100E945C
:102270005E0CC6ECD2E10E943A0C2097E1F30E947A
:10228000C612F9CFFC0184859585FC01E05CFF4F07
:1022900020813181FC01EE5BFF4F80819181281B01
:1022A000390B2F733327C9010895FC018485958567
:1022B000FC01E05CFF4F40815181FC01EE5BFF4F70
:1022C000208131814217530741F00190F081E02DC8
:1022D000E80FF91F208130E002C02FEF3FEFC90166
:1022E0000895FC0184859585FC01E05CFF4F4081E9
:1022F0005181FC01EE5BFF4F208131814217530772
:1023000081F0A081B181A80FB91F8C91208131810A
:102310002F5F3F4F2F73332731832083282F30E0E7
:1023200002C02FEF3FEFC9010895FC0181A188236E
:1023300029F0A489B5898C9186FFFBCF11A208955D
:10234000CF93DF93FC0126853785D901A05CBF4F71
:102350008D919C91119701968F739927E901CE5B1E
:10236000DF4F4881598184179507D9F30D90BC91AF
:10237000A02DA20FB31F6C93A685B785A05CBF4F9D
:1023800011969C938E93A689B7892C9181E090E059
:10239000078C02C0880F991F0A94E2F7282B2C9310
:1023A00081E081A30488F589E02D808180648083A9
:1023B00081E090E0DF91CF910895FB01E05CFF4F59
:1023C000208131812F5F3F4F2F733327DB01AE5BBD
:1023D000BF4F4D915C912417350739F0A081B18131
:1023E000A60FB71F8C9331832083089508951F9201
:1023F0000F920FB60F9211240BB60F922F933F93AB
:102400004F935F936F937F938F939F93AF93BF93FC
:10241000EF93FF938091C00082FD07C08091C600BA
:102420006DE977E00E94DD1102C08091C600FF9146
:10243000EF91BF91AF919F918F917F916F915F913C
:102440004F913F912F910F900BBE0F900FBE0F90A9
:102450001F90189508951F920F920FB60F92112496
:102460000BB60F922F933F934F935F936F937F938E
:102470008F939F93AF93BF93EF93FF938091C80087
:1024800082FD07C08091CE0065E177E00E94DD11FA
:1024900002C08091CE00FF91EF91BF91AF919F91CB
:1024A0008F917F916F915F914F913F912F910F90FD
:1024B0000BBE0F900FBE0F901F90189508951F929E
:1024C0000F920FB60F9211240BB60F922F933F93DA
:1024D0004F935F936F937F938F939F93AF93BF932C
:1024E000EF93FF938091D00082FD07C08091D600CA
:1024F0006DE876E00E94DD1102C08091D600FF9168
:10250000EF91BF91AF919F918F917F916F915F916B
:102510004F913F912F910F900BBE0F900FBE0F90D8
:102520001F90189508951F920F920FB60F921124C5
:102530000BB60F922F933F934F935F936F937F93BD
:102540008F939F93AF93BF93EF93FF93809130014D
:1025500082FD07C08091360165E076E00E94DD11C2
:1025600002C080913601FF91EF91BF91AF919F9191
:102570008F917F916F915F914F913F912F910F902C
:102580000BBE0F900FBE0F901F9018958FE995E02E
:102590000E944211892B11F00E94F6118DE795E0FF
:1025A0000E944211892B11F00E942A128BE595E0BE
:1025B0000E944211892B11F00E945E1289E395E07E
:1025C0000E944211892B11F00C94921208951F92CF
:1025D0000F920FB60F9211240BB60F922F933F93C9
:1025E0008F939F93EF93FF932091990730919A07D0
:1025F00080919B0790919C072817390731F48091AF
:10260000C1008F7D8093C10014C0E0919B07F091C1
:102610009C07E75AF84F208180919B0790919C0777
:1026200001968F73992790939C0780939B07209323
:10263000C600FF91EF919F918F913F912F910F9045
:102640000BBE0F900FBE0F901F9018951F920F9208
:102650000FB60F9211240BB60F922F933F938F93C7
:102660009F93EF93FF932091110730911207809170
:102670001307909114072817390731F48091C90086
:102680008F7D8093C90014C0E0911307F091140767
:10269000EF52F94F20818091130790911407019612
:1026A0008F73992790931407809313072093CE007C
:1026B000FF91EF919F918F913F912F910F900BBEC2
:1026C0000F900FBE0F901F9018951F920F920FB68C
:1026D0000F9211240BB60F922F933F938F939F93DA
:1026E000EF93FF932091890630918A0680918B06A3
:1026F00090918C062817390731F48091D1008F7D95
:102700008093D10014C0E0918B06F0918C06E75BBA
:10271000F94F208180918B0690918C0601968F73E2
:10272000992790938C0680938B062093D600FF9177
:10273000EF919F918F913F912F910F900BBE0F9032
:102740000FBE0F901F9018951F920F920FB60F9209
:1027500011240BB60F922F933F938F939F93EF9378
:10276000FF9320910106309102068091030690911B
:1027700004062817390731F4809131018F7D809349
:10278000310114C0E0910306F0910406EF53FA4FB3
:102790002081809103069091040601968F739927FA
:1027A000909304068093030620933601FF91EF91E6
:1027B0009F918F913F912F910F900BBE0F900FBE65
:1027C0000F901F901895CF92DF92EF92FF92CF93C8
:1027D000DF93EC016A017B01411581EE5807610529
:1027E0007105F9F0EC89FD8981E090E008A002C054
:1027F000880F991F0A94E2F7808360E079E08DE307
:1028000090E0A70196010E94111C21503109410955
:1028100051095695479537952795211580E1380739
:1028200098F0EC89FD89108260E874E88EE190E010
:10283000A70196010E94111C21503109410951093B
:102840005695479537952795E889F9893083EA8920
:10285000FB89208319A2EE89FF89408181E090E005
:102860009C010C8C02C0220F331F0A94E2F7422B0A
:102870004083EE89FF8940819C010D8C02C0220FAC
:10288000331F0A94E2F7422B4083EE89FF8940818F
:102890009C010E8C02C0220F331F0A94E2F7422BD8
:1028A0004083EE89FF8920810F8C02C0880F991F19
:1028B0000A94E2F7809582238083DF91CF91FF9085
:1028C000EF90DF90CF900895CF931092A2051092D1
:1028D000A10588EE93E0A0E0B0E08093A30590937B
:1028E000A405A093A505B093A6052CEF32E0309384
:1028F000A00520939F054DE957E05093AC05409308
:10290000AB0549E557E05093AE054093AD0545EC66
:1029100050E05093B0054093AF0544EC50E0509325
:10292000B2054093B10540EC50E05093B40540939C
:10293000B30541EC50E05093B6054093B50542EC29
:1029400050E05093B8054093B70546EC50E05093E3
:10295000BA054093B905C4E0C093BB05F3E0F0931A
:10296000BC05E7E0E093BD0575E07093BE0561E04E
:102970006093BF051092800510927F0580938105BA
:1029800090938205A0938305B093840530937E05D0
:1029900020937D0545E157E050938A0540938905D2
:1029A00041ED56E050938C0540938B054DEC50E083
:1029B00050938E0540938D054CEC50E0509390055C
:1029C00040938F0548EC50E0509392054093910559
:1029D00049EC50E050939405409393054AEC50E045
:1029E00050939605409395054EEC50E05093980512
:1029F00040939705C0939905F0939A05E0939B0542
:102A000070939C0560939D0510925E0510925D0584
:102A100080935F0590936005A0936105B093620574
:102A200030935C0520935B054DE856E050936805B4
:102A30004093670549E456E050936A054093690561
:102A400045ED50E050936C0540936B0544ED50E02C
:102A500050936E0540936D0540ED50E05093700526
:102A600040936F0541ED50E050937205409371051E
:102A700042ED50E0509374054093730546ED50E0ED
:102A80005093760540937505C0937705F0937805CC
:102A9000E093790570937A0560937B0510923C056D
:102AA00010923B0580933D0590933E05A0933F0512
:102AB000B093400530933A052093390585E096E0C0
:102AC000909346058093450581EC95E090934805E9
:102AD0008093470585E391E090934A0580934905EB
:102AE00084E391E090934C0580934B0580E391E063
:102AF00090934E0580934D0581E391E090935005AE
:102B000080934F0582E391E09093520580935105A5
:102B100086E391E09093540580935305C093550547
:102B2000F0935605E0935705709358056093590547
:102B3000CF910895CF92DF92EF92FF920F931F9360
:102B4000CF93DF936C01EB017A01E60EF71E00E0F4
:102B500010E00BC06991D601ED91FC910190F081DC
:102B6000E02DC6011995080F191FCE15DF0591F745
:102B7000C801DF91CF911F910F91FF90EF90DF90EF
:102B8000CF9008956115710581F0DB010D90002053
:102B9000E9F7AD0141505109461B570BDC01ED919E
:102BA000FC910280F381E02D199480E090E008957B
:102BB000EF92FF920F931F93CF93DF937C01EB0172
:102BC00000E010E0FE0121966491662351F0F701C8
:102BD000A081B181ED91FC91C7011995080F191FD2
:102BE000F1CFC801DF91CF911F910F91FF90EF902E
:102BF0000895AF92BF92CF92DF92EF92FF920F9320
:102C00001F93CF93DF937C016B0100E010E0C0E0E5
:102C1000D0E011C0D701ED91FC91A080B180B80146
:102C2000C6010E948A18682FC701F5011995C80FBF
:102C3000D91F0F5F1F4FD60114968D919C91159748
:102C40000817190738F3CE01DF91CF911F910F912B
:102C5000FF90EF90DF90CF90BF90AF9008950C94CD
:102C6000C215DC01ED91FC910190F081E02D1994E9
:102C70000F931F93CF93DF93EC016DE00E94311609
:102C80008C016AE0CE010E9431169C01200F311F99
:102C9000C901DF91CF911F910F9108950F931F9359
:102CA000CF93DF93EC010E94F9158C01CE010E94B5
:102CB00038169C01200F311FC901DF91CF911F9160
:102CC0000F9108950F931F93CF93DF93EC010E9410
:102CD000C2158C01CE010E9438169801280F391FA9
:102CE000C901DF91CF911F910F9108954F925F928B
:102CF0006F927F929F92AF92BF92CF92DF92EF92AC
:102D0000FF920F931F93CF93DF93CDB7DEB7A197B9
:102D10000FB6F894DEBF0FBECDBF5C016A017B0128
:102D2000922E19A281E0821710F08AE0982E8E016F
:102D30000F5D1F4F492C512C612C712CC701B6011E
:102D4000A30192010E94111C8C2D929E80191124C6
:102D5000015011098A3014F4805D01C0895CF801CA
:102D6000808369017A01C114D104E104F10431F7CF
:102D7000B801C5010E94C215A1960FB6F894DEBF36
:102D80000FBECDBFDF91CF911F910F91FF90EF90BC
:102D9000DF90CF90BF90AF909F907F906F905F90AB
:102DA0004F9008952115310541F4DC01ED91FC911E
:102DB0000190F081E02D642F19940C9476160F93F6
:102DC0001F93CF93DF93EC019A01462F50E060E010
:102DD00070E00E94D2168C01CE010E943816980134
:102DE000280F391FC901DF91CF911F910F910895CD
:102DF000CF92DF92EF92FF920F931F93CF93DF93C7
:102E0000EC016A017B012115310579F4E881F98132
:102E10000190F081E02D642FDF91CF911F910F91F0
:102E2000FF90EF90DF90CF9019942A30310519F47C
:102E300077FD0EC02AE0B701A601CE01DF91CF9148
:102E40001F910F91FF90EF90DF90CF900C9476162A
:102E50006DE20E9431168C0144275527BA014C19A6
:102E60005D096E097F092AE0CE010E947616080FDF
:102E7000191FC801DF91CF911F910F91FF90EF9023
:102E8000DF90CF9008959A01AB01662757FD6095BA
:102E9000762F0C94F816FC01808191810C94880F98
:102EA000CF93DF93EC0188819981009711F00E9404
:102EB000880F198218821D821C821B821A82DF9160
:102EC000CF9108950F931F93CF93DF93EC018B0164
:102ED0006F5F7F4F888199810E94E218009731F0DF
:102EE000998388831B830A8381E001C080E0DF919E
:102EF000CF911F910F910895CF93DF93EC018881BB
:102F00009981892B31F08A819B818617970708F078
:102F10000CC0CE010E946217882349F08C819D81EC
:102F2000892B19F4E881F981108281E001C080E0E9
:102F3000DF91CF910895EF92FF920F931F93CF935C
:102F4000DF93EC017B018A01BA010E947C17811199
:102F500004C0CE010E94501707C01D830C83B70127
:102F6000888199810E94A91CCE01DF91CF911F9188
:102F70000F91FF90EF900895DC0111961C921E9224
:102F800013961C921E92129715961C921E921497DD
:102F900016961C926115710559F0DB010D90002009
:102FA000E9F7AD0141505109461B570B0C949B1793
:102FB0000895CF93DF93EC01FB018617970761F02B
:102FC000608171816115710529F0448155810E94EC
:102FD0009B1702C00E945017CE01DF91CF91089538
:102FE000FC011182108213821282158214821682D1
:102FF0000C94D917CF93DF93D82FC92F6115710582
:1030000061F0DB010D900020E9F7AD01415051095D
:10301000461B570B0E949B1702C00E9450178D2F12
:103020009C2FDF91CF9108950F931F93CF93DF9340
:10303000CDB7DEB762970FB6F894DEBF0FBECDBF37
:103040008C01CB01F8011182108213821282158249
:103050001482168250E0BE016F5F7F4F0E94F11C08
:10306000BE016F5F7F4FC8010E94FA1762960FB6CC
:10307000F894DEBF0FBECDBFDF91CF911F910F91AE
:103080000895EF92FF920F931F93CF93DF93EC017C
:103090007B010C811D816115710511F480E016C062
:1030A0004115510591F0040F151FB8010E947C17BE
:1030B0008823A1F3288139818C819D81B701820FFA
:1030C000931F0E94A91C1D830C8381E0DF91CF9187
:1030D0001F910F91FF90EF900895CF93DF93D82F1A
:1030E000C92F6115710569F0DB010D900020E9F72A
:1030F000AD0141505109461B570B0E9441188111E7
:1031000004C08D2F9C2F0E9450178D2F9C2FDF9174
:10311000CF910895FC01248135816217730748F42B
:1031200080819181009729F0FC01E60FF71F8081D3
:10313000089580E008954F925F926F927F92AF92D0
:10314000BF92CF92DF92EF92FF920F931F93CF9394
:10315000DF93CDB7DEB729013A01621B730B840BF5
:10316000950B2A893B894C895D892A193B094C09B1
:103170005D092A8B3B8B4C8B5D8B9B01AC016A8973
:103180007B898C899D890E94E11BE418F50806095A
:103190001709A80197010E94331C2A0D3B1D4C1DE5
:1031A0005D1DB901CA01DF91CF911F910F91FF9071
:1031B000EF90DF90CF90BF90AF907F906F905F9037
:1031C0004F9008958F929F92AF92BF92CF92DF92CD
:1031D000EF92FF920F931F93CF93DF93EC01009731
:1031E00079F4CB01DF91CF911F910F91FF90EF9078
:1031F000DF90CF90BF90AF909F908F900C94ED0E8A
:10320000DC01A60FB71FFC013297AE17BF0718F4F9
:10321000C0E0D0E0ADC00081118106171707B0F003
:103220000530110508F4A4C0C80104978617970754
:1032300008F49EC002501109061B170B0D931D9335
:1032400071836083CD010E94880F92C07B01E01AD8
:10325000F10A5C01A00EB11EE091E307F091E407D2
:10326000812C912C80E090E04CC0EA15FB05F1F533
:10327000408151816A0122E0C20ED11CCE14DF04CC
:10328000A8F19A012E193F097901690132E0C30EB4
:10329000D11C2EEFA22EBB24BA94AC0EBD1E25E08D
:1032A000C216D10478F04281538113965C934E93F9
:1032B00012971196FC92EE92F501718360833A2F7A
:1032C0002B2F09C00E5F1F4F040F151FD5010D9343
:1032D0001C9332812381009721F0FC0132832383E8
:1032E00047C03093E3072093E40742C08081918177
:1032F0008816990608F44C0152814381CF01E52FCD
:10330000F42F309709F0B1CF8091E1079091E20757
:103310008A159B05F1F486169706D8F4809115025C
:1033200090911602009741F48DB79EB72091190233
:1033300030911A02821B930BA817B90708F068CFC7
:10334000B093E207A093E107FE0132977183608397
:103350000FC0CB010E94ED0E7C01009709F458CFFD
:10336000A801BE010E94A01CCE010E94880FE701A7
:10337000CE01DF91CF911F910F91FF90EF90DF90E1
:10338000CF90BF90AF909F908F9008955058BB27DB
:10339000AA270ED075C166D130F06BD120F031F480
:1033A0009F3F11F41EF45BC10EF4E095E7FB51C1A1
:1033B000E92F77D180F3BA1762077307840795075F
:1033C00018F071F49EF58FC10EF4E0950B2EBA2F14
:1033D000A02D0B01B90190010C01CA01A00111241B
:1033E000FF27591B99F0593F50F4503E68F11A16C7
:1033F000F040A22F232F342F4427585FF3CF469558
:1034000037952795A795F0405395C9F77EF41F1679
:10341000BA0B620B730B840BBAF09150A1F0FF0F43
:10342000BB1F661F771F881FC2F70EC0BA0F621F2F
:10343000731F841F48F4879577956795B795F7951F
:103440009E3F08F0B3CF9395880F08F09927EE0FB1
:10345000979587950895D9D008F481E008950CD008
:103460000FC107D140F0FED030F021F45F3F19F0DA
:10347000F0C0511139C1F3C014D198F39923C9F3A5
:103480005523B1F3951B550BBB27AA27621773076A
:10349000840738F09F5F5F4F220F331F441FAA1F1E
:1034A000A9F333D00E2E3AF0E0E830D091505040DE
:1034B000E695001CCAF729D0FE2F27D0660F771F8C
:1034C000881FBB1F261737074807AB07B0E809F06E
:1034D000BB0B802DBF01FF2793585F4F2AF09E3F03
:1034E000510568F0B6C000C15F3FECF3983EDCF3D5
:1034F000869577956795B795F7959F5FC9F7880F7C
:10350000911D9695879597F90895E1E0660F771FCD
:10351000881FBB1F621773078407BA0720F0621B5E
:10352000730B840BBA0BEE1F88F7E095089504D057
:103530006894B111D9C00895BCD088F09F5790F01D
:10354000B92F9927B751A0F0D1F0660F771F881FC8
:10355000991F1AF0BA95C9F712C0B13081F0C3D0E3
:10356000B1E00895C0C0672F782F8827B85F39F081
:10357000B93FCCF3869577956795B395D9F73EF427
:1035800090958095709561957F4F8F4F9F4F0895CF
:10359000E89409C097FB3EF49095809570956195ED
:1035A0007F4F8F4F9F4F9923A9F0F92F96E9BB27A3
:1035B0009395F695879577956795B795F111F8CF1F
:1035C000FAF4BB0F11F460FF1BC06F5F7F4F8F4F8A
:1035D0009F4F16C0882311F096E911C0772321F080
:1035E0009EE8872F762F05C0662371F096E8862F18
:1035F00070E060E02AF09A95660F771F881FDAF76F
:10360000880F9695879597F90895990F0008550F9B
:10361000AA0BE0E8FEEF16161706E807F907C0F058
:1036200012161306E407F50798F0621B730B840B60
:10363000950B39F40A2661F0232B242B252B21F43A
:1036400008950A2609F4A140A6958FEF811D811DDA
:10365000089597F99F6780E870E060E008959FEF14
:1036600080EC089500240A94161617061806090619
:10367000089500240A9412161306140605060895E8
:10368000092E0394000C11F4882352F0BB0F40F470
:10369000BF2B11F460FF04C06F5F7F4F8F4F9F4FB0
:1036A000089557FD9058440F551F59F05F3F71F032
:1036B0004795880F97FB991F61F09F3F79F0879599
:1036C0000895121613061406551FF2CF4695F1DF22
:1036D00008C0161617061806991FF1CF86957105B2
:1036E000610508940895E894BB2766277727CB01E6
:1036F00097F908958ADF08F48FEF08950BD0C0CFB3
:10370000B1DF28F0B6DF18F0952309F0A2CFA7CFDC
:103710001124EACFC6DFA0F3959FD1F3950F50E0B7
:10372000551F629FF001729FBB27F00DB11D639F73
:10373000AA27F00DB11DAA1F649F6627B00DA11D19
:10374000661F829F2227B00DA11D621F739FB00DBF
:10375000A11D621F839FA00D611D221F749F33272F
:10376000A00D611D231F849F600D211D822F762FC8
:103770006A2F11249F5750408AF0E1F088234AF0C5
:10378000EE0FFF1FBB1F661F771F881F9150504011
:10379000A9F79E3F510570F05CCFA6CF5F3FECF3D9
:1037A000983EDCF3869577956795B795F795E795FD
:1037B0009F5FC1F7FE2B880F911D9695879597F90E
:1037C0000895DB018F939F930E944F1CBF91AF918F
:1037D000A29F800D911DA39F900DB29F900D11246B
:1037E0000895991B79E004C0991F961708F0961B5D
:1037F000881F7A95C9F78095089597FB072E16F4D0
:10380000009407D077FD09D00E945A1C07FC05D010
:103810003EF4909581959F4F0895709561957F4FE7
:103820000895A1E21A2EAA1BBB1BFD010DC0AA1F01
:10383000BB1FEE1FFF1FA217B307E407F50720F019
:10384000A21BB30BE40BF50B661F771F881F991F94
:103850001A9469F760957095809590959B01AC01DD
:10386000BD01CF010895052E97FB16F4009407D0F3
:1038700057FD0DD00E94111C07FC09D07EF49095D5
:103880008095709561957F4F8F4F9F4F089550950C
:103890004095309521953F4F4F4F5F4F08950E94BF
:1038A000721CA59F900DB49F900DA49F800D911D3B
:1038B00011240895AA1BBB1B51E107C0AA1FBB1FFF
:1038C000A617B70710F0A61BB70B881F991F5A95AC
:1038D000A9F780959095BC01CD0108950790F691C8
:1038E000E02D1994A29FB001B39FC001A39F01D006
:1038F000B29F700D811D1124911D0895FC01882730
:103900009927E89421912032E9F3293010F02E30E4
:10391000C8F32B3241F02D3239F4689404C00E9470
:10392000121D820F911D219120532A30C0F31EF4E5
:10393000909581959F4F089548E053E00C94CA1CE0
:10394000FB01DC0102C001900D9241505040D8F7BC
:103950000895FB01DC0101900D920020E1F708952C
:10396000FB0151915523A9F0BF01DC014D91451791
:103970004111E1F759F4CD010190002049F04D913A
:1039800040154111C9F3FB014111EFCF81E090E0F7
:1039900001970895FA01A191B081009719F4109749
:1039A000E1F0CD01DC01CD010D90002011F4C0014A
:1039B00013C0FB012191222319F02015D9F7F3CF71
:1039C000FB012191201519F41E92119606C02223A5
:1039D000C1F70D900020A1F7D001FA01A193B083A7
:1039E0000895FB019F01E8944230C4F04532B4F4DD
:1039F0004A3029F497FB1EF4909581959F4F642FD0
:103A000077270E945A1C805D8A330CF0895D819370
:103A1000CB010097A1F716F45DE251931082C90122
:103A20000C94301D7AE0979F902D879F802D910DEB
:103A300011240895F999FECF92BD81BDF89A992776
:103A400080B50895262FF999FECF1FBA92BD81BD8A
:103A500020BD0FB6F894FA9AF99A0FBE0196089510
:103A6000DC01FC01672F71917723E1F7329704C0E5
:103A70007C916D9370836291AE17BF07C8F3089570
:103A800012E0C0E4D2E000E006C022970109FE0186
:103A90000BBF0E946E1CCA34D10780E00807A9F74B
:043AA000F894FFCFC8
:103AA400DC05DC05DC05DC05DC05DC05DC05DC050A
:103AB40005001000010000E50780007369676E6F60
:103AC400666C696665000000000058016901202CDD
:103AD40028293B0000000000BC02BB02676F007392
:103AE400746172740073746F7000000000006003EE
:103AF4001304310030005F5F006C69676874000074
:103B0400000000740887087265706F7274536574DE
:103B140074696E67002C0072636170007570646173
:103B2400746553657474696E670000000000CF0803
:103B3400D00874696C740000000000AD09470A6580
:103B44007363706F77657200000000007B0ACE0A11
:103B54006C6F673A5761746368646F672077617349
:103B64002074726967676572656420616E6420748D
:103B7400686520666F6C6C6F77696E672077617318
:103B840020726561642066726F6D20454550524F06
:103B94004D3B006C6F673A0000000000A0119A15BD
:083BA400421171115511951138
:00000001FF
