:100000000C94AA010C94DB010C94DB010C94DB0131
:100010000C94DB010C94DB010C94DB010C94DB01F0
:100020000C94DB010C94DB010C94DB010C94DB01E0
:100030000C9420100C94DB010C94DB010C94DB017C
:100040000C94DB010C947E080C94DB010C94DB0116
:100050000C94DB010C94DB010C94DB010C949313E6
:100060000C94DB010C9463150C9453160C94DB0177
:100070000C94DB010C94DB010C94DB010C94DB0190
:100080000C94AC080C94DB010C94DB010C94DB01A8
:100090000C9497150C9492160C94DB010C94DB01D4
:1000A0000C94DB010C94DB010C94DA080C94DB015A
:1000B0000C94DB010C94DB010C94DB010C94DB0150
:1000C0000C94DB010C94DB010C94DB010C94CB153C
:1000D0000C94D1160C94DB010C94FF150C941017A2
:1000E0000C94DB01636D643A00686467643A0064F1
:1000F0006561703A00706974633A00726F6C6C3AB3
:10010000007961773A00667468723A006D6F746FB7
:100110007241747461636865643A00736572766FE6
:100120003A0073746172673A00666D656D3A0076E5
:100130006F75743A00696F75743A0061746D703A46
:10014000007665723A006462646634636364656273
:1001500036343263313330623831663135613038AC
:1001600064373939363635343932306262332020DB
:100170002D00636D70643A004F637420323020327A
:10018000303133002C200032323A30393A303100ED
:100190002C2000342E372E320074696D653A0070C1
:1001A0007265733A0074656D703A00646C6D733AF1
:1001B000006D6F746F72733A006D746172673A000C
:1001C000434150413A002A73657474696E67733A0B
:1001D00000736D6F6F7468696E67496E6372696DE5
:1001E000656E747C00646561645A6F6E655F6D69ED
:1001F0006E7C00646561645A6F6E655F6D61787CCA
:1002000000425244543A00534331493A0053433276
:10021000493A00534333493A00425244493A004272
:100220005431493A00425432493A00425244563A13
:1002300000616C70733A000000090A02080B0C0D93
:100240000706030401000000000000000000000099
:10025000000000000000000000000000000000009E
:1002600000000011100F000000000000000000005E
:10027000000000000000000000000000000102106B
:1002800020200808102040102040800201020108B0
:100290000402010102040810204080804020100860
:1002A00004020180040201804020100804020108B9
:1002B0000402010102040810204080010204081019
:1002C0002040800505050507050808080802020208
:1002D000020A0A08080404040401010101010101E1
:1002E000010303030303030303040707070C0C0CB8
:1002F0000C0C0C0C0C020202020606060606060690
:10030000060B0B0B0B0B0B0B0B0000220025002820
:10031000002B002E0031003400020100000501080E
:10032000010B0100002100240027002A002D0030CD
:1003300000330001010000040107010A0100540517
:10034000A507100BE60CBF0E3610D0175A053A0B56
:10035000FC0E701011241FBECFEFD1E2DEBFCDBF67
:1003600000E00CBF13E0A0E0B2E0E0EEF3E400E058
:100370000BBF02C007900D92A830B107D9F717E064
:10038000A8E0B3E001C01D92AA3EB107E1F713E077
:10039000CCE4D3E000E006C022970109FE010BBFC8
:1003A0000E940C21CE33D10780E00807A9F70E94F4
:1003B000A1140C94DE210C940000CF93C1E02EC058
:1003C00084EA95E00E94DD1490911E03911104C00F
:1003D000C0931E0310921F0390911E039923F1F006
:1003E000E0911F03E03519F410921F031EC02E2F59
:1003F00030E08B3341F4F901E05EFC4F1082109243
:100400001E0381E013C0D901A05EBC4F8C93EF5F47
:10041000E0931F03F0E0E05EFC4F108284EA95E079
:100420000E94AE14181619065CF280E0CF91089570
:1004300080917103882341F080E293E00E944E2175
:1004400021E08052934009F020E0822F08951F930D
:10045000CF93DF9360E272E080E293E00E943A2162
:10046000EC0110E032C0111111C064EE70E084EABA
:1004700095E00E944419BE0184EA95E00E949B1910
:1004800068E284EA95E00E949D1917C0CE010E949F
:100490001C21E12FF0E0EE0FFF1FE65FFC4F918380
:1004A0008083123028F06CE284EA95E00E949D1966
:1004B000BE0184EA95E00E949B191F5F60E272E032
:1004C00080E090E00E943A21EC01209761F663E21F
:1004D00072E084EA95E00E94E21910930A031092F8
:1004E0000B03DF91CF911F910895CF93DF93EC0120
:1004F000109271030E94DD01882339F0CE010E9421
:10050000270281E08093710301C080E0DF91CF91E9
:100510000895CF92DF92EF92FF920F931F93CF93A4
:10052000DF93EC016A017B010E94DD130C811D81C8
:100530002E813F81601B710B820B930BC616D70671
:10054000E806F90640F40E94DD136C837D838E83F8
:100550009F8381E001C080E0DF91CF911F910F91D7
:10056000FF90EF90DF90CF900895CF93DF93EC0151
:100570000E94DD13688379838A839B836C837D83E8
:100580008E839F83DF91CF9108950C94B5020895D7
:1005900008952091D5033091D603F901EE0FFF1F86
:1005A000EF53FC4F918380832F5F3F4F3093D603EF
:1005B0002093D5030895CF93DF93D82FC92FE82F29
:1005C000F92F2AE232E02193319368E672E0CF01FD
:1005D0000E94561C8D2F9C2FDF91CF910C94C90245
:1005E0008F929F92AF92BF92CF92DF92EF92FF9243
:1005F0000F931F93CF93DF931F92CDB7DEB78983FD
:1006000051EC852E53E0952E0DEA13E0A12CB12C70
:1006100023C00E94DD136B017C01D4018D919D915B
:100620004D01DC01ED91FC910280F381E02D60E051
:1006300019950E94DD136C197D09161617063CF4F6
:10064000F80180819181860F971F91838083FFEF4E
:10065000AF1ABF0A0E5F1F4F8091D5039091D6034A
:10066000A816B906B4F20F90DF91CF911F910F91A8
:10067000FF90EF90DF90CF90BF90AF909F908F90C2
:1006800008950F931F93CF93DF9301EC13E0C0E025
:10069000D0E00CC0D8018D919D918D01DC01ED91D0
:1006A000FC910190F081E02D199521968091D50360
:1006B0009091D603C817D9076CF3DF91CF911F91A2
:1006C0000F91089569EE70E084EA95E00E94441964
:1006D0004091A9035091AA036091AB037091AC03C0
:1006E00022E030E084EA95E00E94E31B6BE384EAB9
:1006F00095E00E949D196FEE70E084EA95E00E94FB
:1007000044194091A5035091A6036091A7037091ED
:10071000A80322E030E084EA95E00E94E31B6BE34B
:1007200084EA95E00E949D1965EF70E084EA95E007
:100730000E9444194091A1035091A2036091A30328
:100740007091A40322E030E084EA95E00E94E31B6C
:100750006BE384EA95E00E949D196BEF70E084EAF8
:1007600095E00E94441940919D0350919E03609131
:100770009F037091A00322E030E084EA95E00E949C
:10078000E31B6BE384EA95E00E949D1961E071E050
:1007900084EA95E00E944419409195035091960394
:1007A000609197037091980322E030E084EA95E02D
:1007B0000E94E31B6BE384EA95E00E949D1966E0CA
:1007C00071E084EA95E00E944419409199035091A8
:1007D0009A0360919B0370919C0322E030E084EACD
:1007E00095E00E94E31B6BE384EA95E00C94F61914
:1007F0000F931F93CF93DF936CE071E084EA95E051
:100800000E9444194AE050E06091040284EA95E0B5
:100810000E94791A6BE384EA95E00E94F6196BE175
:1008200071E084EA95E00E9444196091020270919F
:1008300003024AE050E084EA95E00E94E41A6BE388
:1008400084EA95E00E949D1962E271E084EA95E0F5
:100850000E94441960910002709101024AE050E048
:1008600084EA95E00E94E41A6BE384EA95E00E9432
:10087000F61969E271E084EA95E00E94441940911A
:10088000890350918A0360918B0370918C0322E05D
:1008900030E084EA95E00E94E31B6BE384EA95E094
:1008A0000E949D196FE271E084EA95E00E9444196C
:1008B000409185035091860360918703709188036E
:1008C00022E030E084EA95E00E94E31B6BE384EAD7
:1008D00095E00E949D1965E371E084EA95E00E942D
:1008E0004419409181035091820360918303709178
:1008F000840322E030E084EA95E00E94E31B6BE38E
:1009000084EA95E00E949D196BE371E084EA95E02A
:100910000E94441940917D0350917E0360917F03B2
:100920007091800322E030E084EA95E00E94E31BAE
:100930006BE384EA95E00E949D1961E471E084EA2A
:1009400095E00E94441966E471E084EA95E00E9413
:1009500044196BE384EA95E00E949D1962E771E017
:1009600084EA95E00E94441968E771E084EA95E022
:100970000E94441964E871E084EA95E00E944419F9
:1009800067E871E084EA95E00E94441960E971E04B
:1009900084EA95E00E94441963E971E084EA95E0F5
:1009A0000E94BA196BE384EA95E00E949D1969E9F7
:1009B00071E084EA95E00E944419409172035091DD
:1009C0007303609174037091750322E030E084EA50
:1009D00095E00E94E31B6BE384EA95E00E94F61920
:1009E0006FE971E084EA95E00E9444194091910317
:1009F00050919203609193037091940322E030E050
:100A000084EA95E00E94E31B6BE384EA95E00E9490
:100A10009D1965EA71E084EA95E00E9444194091CD
:100A20008D0350918E0360918F037091900322E0AB
:100A300030E084EA95E00E94E31B6BE384EA95E0F2
:100A40000E94F6196BEA71E084EA95E00E9444196D
:100A50000DEA13E0C0E0D0E017C04AE050E0BE016C
:100A600084EA95E00E94E41A6CE784EA95E00E942B
:100A70009D19F801619171918F014AE050E084EA7B
:100A800095E00E94731A21968091D5039091D60328
:100A9000C817D90714F36BE384EA95E0DF91CF918F
:100AA0001F910F910C94F61968E672E086E793E0C7
:100AB0000C94561C86E793E00C94E51B88EE93E0BB
:100AC0000E94880A88ED93E00E94B50280EE93E0D0
:100AD0000E94B5021092D70308958F929F92AF9211
:100AE000BF92CF92DF92EF92FF920F931F93CF931B
:100AF000DF938C01EB016C3D85E078072CF40D3D14
:100B000085E018070CF07DC00C3D85E018072CF43B
:100B1000CD3D85E0D8070CF074C02CED35E0201BEE
:100B2000310B121613061CF098012C5D35408CED2C
:100B300095E08C1B9D0B181619061CF0CE018C5DE0
:100B40009540281739070CF45EC00C1B1D0BB8012B
:100B5000882777FD8095982F0E94641F4B015C01C8
:100B6000EE24E394F12C20E030E0A901682D792DEA
:100B70008A2D9B2D0E941420181614F0E12CF12CC4
:100B8000CC24C394D12C20E030E0A901682D792D2C
:100B90008A2D9B2D0E94C51E87FD02C0C12CD12C21
:100BA000EC18FD0817FF03C011950195110920915C
:100BB000150230911602C801201731070CF4C90143
:100BC000E89E8001E99E100DF89E100D11240C0F77
:100BD0001D1F8FEFE816F80641F4809113029091E3
:100BE0001402801791077CF40AC0EA94EF2859F4A4
:100BF00080911102909112020817190724F48C01B8
:100C000002C00CED15E0C801DF91CF911F910F914B
:100C1000FF90EF90DF90CF90BF90AF909F908F901C
:100C20000895AF92BF92CF92DF92EF92FF920F930F
:100C30001F93CF93DF931F92CDB7DEB769836EE228
:100C400072E0CE0101960E9418028823E1F14091E2
:100C50000C0350910D03483E63E056070CF44CC062
:100C600020910E0330910F03283E83E038070CF4E7
:100C700043C08091100390911103883E63E0960772
:100C8000DCF1413D67E05607BCF5213D67E03607E2
:100C90009CF5813D67E096077CF550930A024093EE
:100CA0000902309308022093070290930602809372
:100CB000050280911203909113030197E9F481E0FA
:100CC0008093D70319C061E372E0CE0101960E94C0
:100CD0001802882329F088EE93E00E94880A0CC04D
:100CE00067E372E0CE0101960E941802882321F08A
:100CF00088EE93E00E94B80A42E350E060E070E0C2
:100D000080EE93E00E948902882309F469C0009173
:100D1000090210910A0260910F02709110020617E9
:100D20001707B9F4209107023091080280910B0255
:100D300090910C022817390761F420910502309137
:100D4000060280910D0290910E022817390709F4CE
:100D500047C0C8010E946D059093100280930F0256
:100D6000C0900702D090080260910B0270910C02B3
:100D7000C6010E946D0590930C0280930B02E090D7
:100D80000502F090060260910D0270910E02C701FB
:100D90000E946D0590930E0280930D028091D703FF
:100DA000882371F01093100200930F02D0920C026E
:100DB000C0920B02F0920E02E0920D021092D70345
:100DC00020910D0230910E0240910B0250910C02C5
:100DD00060910F027091100288EE93E00E949D0ACC
:100DE00080910F029091100220910D0230910E021D
:100DF000820F931F97FD0196BC0175956795882713
:100E000077FD8095982F1F921F921F9224E62F93B3
:100E10003CE9A32EBB24BA94CB2CDB2C10EDE12EA5
:100E200017E0F12E00E010E028EE33E040E050E063
:100E30000E94351D0E94641F6093990370939A036A
:100E400080939B0390939C0348EE53E060E070E036
:100E500088ED93E00E9489020F900F900F900F9001
:100E6000882309F466C061EB71E084EA95E00E9492
:100E7000441960910F02709110024AE050E084EA38
:100E800095E00E94E41A6CE284EA95E00E949D19C4
:100E900060910B0270910C024AE050E084EA95E008
:100EA0000E94E41A6CE284EA95E00E949D19609128
:100EB0000D0270910E024AE050E084EA95E00E9433
:100EC000E41A6BE384EA95E00E94F61969EB71E09D
:100ED00084EA95E00E9444196091090270910A0227
:100EE0004AE050E084EA95E00E94E41A6CE284EA69
:100EF00095E00E949D1960910702709108024AE0F6
:100F000050E084EA95E00E94E41A6CE284EA95E0FD
:100F10000E949D1960910502709106024AE050E01E
:100F200084EA95E00E94E41A6BE384EA95E00E946B
:100F3000F6190F90DF91CF911F910F91FF90EF90D5
:100F4000DF90CF90BF90AF90089528E030E047E069
:100F500050E066E070E088EE93E00E94630A80EE65
:100F600093E00E94C50288ED93E00C94C502EF92D5
:100F7000FF920F931F93CF93DF938B017A01EC01C4
:100F8000DC01A850BC4F8C9187FF05C0DB01119696
:100F90001C921E9222C02CE02C9FC0012D9F900D10
:100FA00011242C91AC01420F511D27FD5A9520911F
:100FB000F70330E04217530784F42C91FC01E20F51
:100FC000F11D27FDFA959F01EE0FFF1FE20FF31FA2
:100FD000E550FC4F208126FD45C0FE01E850FC4F46
:100FE00080818F5F80832CE02C9FC0012D9F900D0E
:100FF00011242081AC01420F511D27FD5A952091EB
:10100000F70330E0421753070CF03EC020812C302C
:101010000CF442C039C02081820F911D27FD9A95A2
:10102000FC01EE0FFF1FE80FF91FE550FC4F808118
:1010300061E08F73DF91CF911F910F91FF90EF903F
:101040000C94221280E49CE904C0F8018081918113
:101050000496D70111969C938E93C850DC4F8FEF66
:10106000888345C02C91820F911D27FD9A95FC0124
:10107000EE0FFF1FE80FF91FE550FC4F808160E085
:101080008F730E942212A9CFF8018081918104966A
:1010900080349C49B8F2D9CFD8012D913C91408140
:1010A000BC01640F711D47FD7A95AB01DB01AA0FEE
:1010B000BB1FA40FB51FA550BC4F11964D915C915D
:1010C0001297240F351FD70111963C932E93208140
:1010D000AC01420F511D27FD5A95DA01AA0FBB1F23
:1010E000A40FB51FA550BC4F2C9126FD94CFDF91C6
:1010F000CF911F910F91FF90EF9008951F920F9243
:101100000FB60F9211240BB60F922F933F934F936C
:101110005F936F937F938F939F93AF93BF93EF935F
:10112000FF9348E850E064E870E080E090E00E94BF
:10113000B707FF91EF91BF91AF919F918F917F91F1
:101140006F915F914F913F912F910F900BBE0F9038
:101150000FBE0F901F9018951F920F920FB60F920F
:1011600011240BB60F922F933F934F935F936F937E
:101170007F938F939F93AF93BF93EF93FF9348E930
:1011800050E064E970E081E090E00E94B707FF91D1
:10119000EF91BF91AF919F918F917F916F915F91EF
:1011A0004F913F912F910F900BBE0F900FBE0F905C
:1011B0001F9018951F920F920FB60F9211240BB625
:1011C0000F922F933F934F935F936F937F938F93E0
:1011D0009F93AF93BF93EF93FF9348EA50E064EA85
:1011E00070E082E090E00E94B707FF91EF91BF911D
:1011F000AF919F918F917F916F915F914F913F91AF
:101200002F910F900BBE0F900FBE0F901F9018954F
:101210002091F7032432A0F4FC012083822F8F5FFA
:101220008093F703822F90E0FC01EE0FFF1FE80F81
:10123000F91FE550FC4F88EB9BE092838183089572
:101240002FEFFC0120830895DF92EF92FF920F931E
:101250001F93CF93DF93EC01D62E7A018901888109
:10126000843208F084C061E08D2D0E94EA118881EB
:10127000A82FB0E0FD01EE0FFF1FEA0FFB1FE550A6
:10128000FC4F2D2D2F739081907C922B908360E2E8
:1012900072E06E197F0977FF02C06D5F7F4F759511
:1012A000679575956795698340E659E0401B510B3A
:1012B00057FF02C04D5F5F4F559547955595479530
:1012C0004A836CE00E948F209CE0899FB00111242A
:1012D00020E030E0A901460F571FFA01EE0FFF1F73
:1012E000E40FF51FE550FC4F908196FD34C02F5F51
:1012F0003F4F2C30310571F73CC01092800082E0E6
:10130000809381001092850010928400B19A8091A0
:101310006F00826080936F001EC08130910569F478
:101320001092900082E080939100109295001092AC
:10133000940088BB809371000EC0029761F41092F4
:10134000A00082E08093A1001092A5001092A4005A
:1013500089BB80937200888190E0FC01EE0FFF1F33
:10136000E80FF91FE550FC4F8081806480838881FD
:1013700004C090E0009709F2D0CFDF91CF911F9188
:101380000F91FF90EF90DF90089520E639E040E262
:1013900052E00C942409FC01808190E0FC01EE0FE6
:1013A000FF1FE80FF91FE550FC4F80818F7B808382
:1013B0000895FC018081843270F5918128E830E045
:1013C000291B310997FD3395220F331F220F331F3D
:1013D000621773077CF0928128E532E0291B3109FE
:1013E00097FD3395220F331F220F331F62177307A8
:1013F0000CF49B014FB7F89490E0FC01EE0FFF1F37
:10140000E80FF91FE550FC4F22503109220F331F1E
:10141000328321834FBF0895AF92BF92CF92DF9264
:10142000EF92FF920F93CF93DF931F92CDB7DEB76A
:101430005C017B016A0168E672E029830E94561C08
:10144000B701C5010E94731CF501D086C7822981AE
:10145000238704870F90DF91CF910F91FF90EF903A
:10146000DF90CF90BF90AF900895FC0183858823D3
:1014700049F08485882311F060E001C061E0878134
:101480000C94EA1108950F931F93CF93DF93EC010F
:101490008B018C85811110C08B85882351F06115DB
:1014A000710511F460E001C061E08F810E94221299
:1014B00003C08F810E94A2101A870987DF91CF9104
:1014C0001F910F910895CF92DF92EF92FF920F93A9
:1014D0001F93CF93DF93EC018B016A0179010E9486
:1014E0000809CE0103960E940809CE0106960E94C3
:1014F00008091A870987DC86CB86FE86ED86DF9190
:10150000CF911F910F91FF90EF90DF90CF900895B2
:10151000CF93DF93EC0169857A850E94C5096B85BD
:101520007C85CE0103960E94C5096D857E85CE011E
:101530000696DF91CF910C94C509EF92FF920F931D
:101540001F93CF93DF93EC017A0189010E94D9099F
:10155000B701CE0103960E94D909B801CE010696C3
:10156000DF91CF911F910F91FF90EF900C94D909CB
:10157000EF92FF920F931F93CF93DF93EC016CEDEB
:1015800075E00E94D9097E0183E0E80EF11C6CED44
:1015900075E0C7010E94D9098E010A5F1F4F6CEDEB
:1015A00075E0C8010E94D909CE010E94CB09C7018C
:1015B0000E94CB09C801DF91CF911F910F91FF903D
:1015C000EF900C94CB098091740490917504826023
:1015D000909375048093740487E694E00E94350A22
:1015E00060E070E087E694E00C94430ACF93DF93C9
:1015F0001F92CDB7DEB769836BE472E0CE0101962E
:101600000E941802882341F060910C0370910D0331
:1016100087E694E00E94430A0F90DF91CF910895EE
:101620000F93CF93DF93CDB7DEB727970FB6F8941C
:10163000DEBF0FBECDBF6BE472E0CE0101960E940B
:10164000561C00E020E04CE250E0BE016F5F7F4F8F
:1016500087E694E00E940C0ACE0101960E94E51BE9
:1016600027960FB6F894DEBF0FBECDBFDF91CF91A6
:101670000F91089587E694E00C94E51B0895CF93AD
:10168000DF93CDB7DEB72F970FB6F894DEBF0FBE4E
:10169000CDBF6F8769E572E0CE010F960E941802F8
:1016A000882309F482C066EC71E084EA95E00E9428
:1016B000441961ED71E084EA95E00E94441960915B
:1016C0001502709116024AE0CE0101960E94AE1CEE
:1016D000BE016F5F7F4FCE0108960E948A1C67E6AD
:1016E00072E0CE0108960E94071DBC0184EA95E0D5
:1016F0000E946519CE0108960E94E51BCE01019655
:101700000E94E51B65EE71E084EA95E00E944419B1
:1017100060911302709114024AE0CE0101960E947A
:10172000AE1CBE016F5F7F4FCE0108960E948A1CDF
:1017300067E672E0CE0108960E94071DBC0184EAAC
:1017400095E00E946519CE0108960E94E51BCE0126
:1017500001960E94E51B63EF71E084EA95E00E9428
:10176000441960911102709112024AE0CE01019673
:101770000E94AE1CBE016F5F7F4FCE0108960E9493
:101780008A1C64E272E0CE0108960E94071DBC012B
:1017900084EA95E00E94CE19CE0108960E94E51BCE
:1017A000CE0101960E94E51B3EC069E672E0CE01C3
:1017B0000F960E9418028823B1F060EC71E084EA71
:1017C00095E00E94441960917404709175044AE098
:1017D00050E084EA95E00E94E41A6BE384EA95E025
:1017E0000E949D1920C06EE672E0CE010F960E9405
:1017F00018028823C1F080910C0390910D039093FF
:1018000016028093150280910E0390910F0390931E
:10181000140280931302809110039091110390930E
:101820001202809311022F960FB6F894DEBF0FBEFE
:10183000CDBFDF91CF91089569E070E08AE794E031
:101840000E94C509809174049091750488609093FA
:1018500075048093740408958F929F92AF92BF9203
:10186000CF92DF92EF92FF920F931F93CF93DF936C
:10187000EB016C3D25E072072CF48D3D25E09207CD
:101880000CF064C08C3D25E092072CF4CD3D25E0A2
:10189000D2070CF05BC08C010C1B1D0BB801882714
:1018A00077FD8095982F0E94641F4B015C01EE2408
:1018B000E394F12C20E030E0A901682D792D8A2DE8
:1018C0009B2D0E941420181614F0E12CF12CCC242E
:1018D000C394D12C20E030E0A901682D792D8A2D08
:1018E0009B2D0E94C51E87FD02C0C12CD12CEC1877
:1018F000FD08C8010996439730F417FF06C01195FB
:101900000195110902C00AE010E0E09E9001E19EFD
:10191000300DF09E300D11242C0F3D1F8FEFE81677
:10192000F80641F4809113029091140282179307F4
:101930007CF40AC0EA94EF2859F480911102909146
:1019400012022817390724F49C0102C02CED35E05F
:10195000C901DF91CF911F910F91FF90EF90DF9020
:10196000CF90BF90AF909F908F900895CF93DF93CB
:101970001F92CDB7DEB7698364E872E0CE010196AD
:101980000E941802882341F080910C0390910D036E
:1019900090937904809378048091780490917904ED
:1019A00060917604709177048617970759F00E942A
:1019B0002C0C9093770480937604BC018AE794E022
:1019C0000E94D9090F90DF91CF9108958AE794E0A2
:1019D0000C94080984EA94E00E94B50284E994E03A
:1019E0000E94B5028CE994E00E94B5028DE794E074
:1019F0000E94350A61E070E08DE794E00E94430A9E
:101A0000ECEAF4E01192119284E0E83EF807D1F795
:101A100008950E947910BC01882777FD8095982F42
:101A20000E94641F20E030E040E251E40E94182050
:101A300020E030EC4FE754E40E94C91E20E030E083
:101A4000A9010E94611E08950E947910BC01882797
:101A500077FD8095982F0E94641F20E030E040EAD7
:101A600051E40E94182020E030EC4FE754E40E943B
:101A7000C91E20E030E0A9010E94611E08950E9465
:101A80007910BC01882777FD8095982F0E94641FEC
:101A90009B01AC010E94611E20E030EC4FE754E452
:101AA0000E94C91E20E030E0A9010E94611E089535
:101AB000CF93DF9344E650E060E070E084EA94E086
:101AC0000E948902882309F44DC0C0919204D091EC
:101AD0009304CC0FDD1FC455DB4F8091900490918F
:101AE000910428813981821B930B909391048093F8
:101AF000900486E390E00E943F0D0E94311F79839D
:101B0000688361E070E080E090E00E941914209109
:101B1000920430919304F901EE0FFF1FE455FB4F3F
:101B2000809190049091910440815181840F951F80
:101B300090939104809390042F5F3F4F2E31310595
:101B40002CF4309393042093920404C010929304D5
:101B5000109292046EE170E00E949B2070938F04BB
:101B600060938E0448EE53E060E070E08CE994E00E
:101B70000E948902882309F4BAC061E072E084EA15
:101B800095E00E94441940918A0450918B04609121
:101B90008C0470918D0422E030E084EA95E00E948C
:101BA000E31B6BE384EA95E00E949D1967E072E015
:101BB00084EA95E00E94441989E390E00E94090DAF
:101BC000AB01BC0122E030E084EA95E00E94E31B17
:101BD0006BE384EA95E00E949D196DE072E084EA6F
:101BE00095E00E94441988E390E00E94090DAB0142
:101BF000BC0122E030E084EA95E00E94E31B6BE345
:101C000084EA95E00E949D1963E172E084EA95E020
:101C10000E94441987E390E00E94090DAB01BC01CA
:101C200022E030E084EA95E00E94E31B6BE384EA63
:101C300095E00E949D1969E172E084EA95E00E94B6
:101C4000441986E390E00E943F0DAB01BC0122E005
:101C500030E084EA95E00E94E31B6BE384EA95E0C0
:101C60000E949D196FE172E084EA95E00E94441998
:101C70008CE390E00E94090DAB01BC0122E030E052
:101C800084EA95E00E94E31B6BE384EA95E00E94FE
:101C90009D1965E272E084EA95E00E9444198BE3A5
:101CA00090E00E94090DAB01BC0122E030E084EA23
:101CB00095E00E94E31B6BE384EA95E00E949D1986
:101CC0006BE272E084EA95E00E9444198AE390E0B6
:101CD0000E94240DAB01BC0122E030E084EA95E0D3
:101CE0000E94E31B6BE384EA95E00E94F61944E648
:101CF00050E060E070E084E994E00E94890288236B
:101D0000D9F18AE390E00E94240D609385037093DB
:101D10008603809387039093880360918E0470916B
:101D20008F04882777FD8095982F0E94641F609309
:101D300081037093820380938303909384030E94B2
:101D4000140FBC01882777FD8095982F0E94641F8F
:101D50006093890370938A0380938B0390938C0321
:101D60000E94DD130E94621F6093720370937303DD
:101D70008093740390937503DF91CF910895EF9250
:101D8000FF920F93CF93DF93CDB7DEB727970FB6B0
:101D9000F894DEBF0FBECDBF84EA94E00E94C50276
:101DA0008CE994E00E94C50284E994E00E94C50297
:101DB000E0901702F090180261E972E0CE010196FE
:101DC0000E94561C00E021E0A701BE016F5F7F4F1B
:101DD0008DE794E00E940C0ACE0101960E94E51B5B
:101DE00027960FB6F894DEBF0FBECDBFDF91CF911F
:101DF0000F91FF90EF9008958DE794E00C94E51B10
:101E0000E091E807F091E90720E030E009C02E5F9B
:101E10003F4F80819181280F391F0280F381E02D8F
:101E20003097A9F7C90108950F931F93CF93DF93BC
:101E30001F921F92CDB7DEB78091E6079091E7071A
:101E40008E010F5F1F4F009729F40A5E17401A8317
:101E500009830AC0081B190B1A8309830E94000F0B
:101E6000800F911F9A83898389819A810F900F90A7
:101E7000DF91CF911F910F9108952AE232E0FC018A
:101E800021933193CF010C94E51B8DE892E0909360
:101E9000FD048093FC048CEF94E00E943D0F80E4ED
:101EA00092E0909308058093070587E095E00E94F3
:101EB0003D0F85E592E0909313058093120582E132
:101EC00095E00E943D0F8EE992E090931E0580936D
:101ED0001D058DE195E00E943D0F80E892E0909312
:101EE00029058093280588E295E00C943D0FA8957C
:101EF0008BEF94E00E94750280E00E94F0028091D6
:101F0000E8049091E90401969093E9048093E80431
:101F100048EE53E060E070E082EF94E00E948902B6
:101F20008823D9F00E94F80361E372E084EA95E027
:101F30000E9444196091E8047091E9044AE050E07D
:101F400084EA95E00E94E41A6BE384EA95E00E943B
:101F5000F6191092E9041092E80444E650E060E0BB
:101F600070E08AEE94E00E94890281110C94620371
:101F70000895F89484B7877F84BFA895E0E6F0E0E1
:101F800080818861808389EF808378940895F894B4
:101F9000A89584B7877F84BFE0E6F0E08081886100
:101FA00080831082789408950E94C70F0E94B90F11
:101FB00040E052EC61E070E084EA95E00E944F1747
:101FC00060E070E084E395E00E9472108093330536
:101FD000813041F561E070E084E395E00E94721089
:101FE0008093FA0440E060E070E084E395E00E94B2
:101FF000751062EA72E084EA95E00E94E21965EEEB
:1020000072E084EA95E00E949B196091FA044AE02C
:1020100050E084EA95E00E94801A6BE384EA95E040
:102020000E949D1961E08DE00E94EA1182EF94E028
:102030000E94B5028AEE94E00E94B5020C9441031E
:102040001F920F920FB60F9211244091FA044F5F26
:1020500061E070E084E395E00E94751041E060E08B
:1020600070E084E395E00E947510FFCF88E295E070
:102070000E94DB0280E892E0909329058093280576
:102080008DE195E00E94DB028EE992E090931E05BF
:1020900080931D0582E195E00E94DB0285E592E0D8
:1020A000909313058093120587E095E00E94DB0270
:1020B00080E492E090930805809307058CEF94E00C
:1020C0000E94DB028DE892E09093FD048093FC0473
:1020D00082EF94E00E94C5028AEE94E00C94C5025F
:1020E0000C94450FCB010C94B821CB01642F0C94B8
:1020F000C021863308F0865320917B00982F98707A
:10210000277F922B90937B0087702091190240E4E7
:10211000249F90011124822B80937C0080917A006F
:10212000806480937A0080917A0086FDFCCF2091B4
:10213000780030917900932F80E0AC01422B9A0116
:10214000C90108951F93CF93DF93182FEB0161E02E
:102150000E94EA11209711F460E004C0CF3FD1053E
:1021600039F461E0812FDF91CF911F910C942212FD
:10217000E12FF0E0E95CFD4FE491E93009F460C043
:1021800098F4E430C9F138F4E23039F158F5E1302F
:1021900009F0ABC01DC0E73009F440C008F046C0EC
:1021A000E63009F0A2C032C0ED3009F476C030F458
:1021B000EB3009F459C008F066C04CC0E03109F4B6
:1021C00080C0E13109F487C0EF3009F08EC06FC0E4
:1021D00084B5806884BDC7BD8DC084B5806284BD70
:1021E000C8BD88C080918000806880938000D093B3
:1021F0008900C09388007EC08091800080628093B7
:102200008000D0938B00C0938A0074C08091B0008E
:1022100080688093B000C093B3006CC08091B00020
:1022200080628093B000C093B40064C0809190003D
:10223000806880939000D0939900C09398005AC012
:1022400080919000806280939000D0939B00C09317
:102250009A0050C080919000886080939000D09345
:102260009D00C0939C0046C08091A0008068809330
:10227000A0008091A0008F7B8093A000D093A90044
:10228000C093A80037C08091A00080628093A00016
:10229000D093AB00C093AA002DC08091A0008860AD
:1022A0008093A000D093AD00C093AC0023C0809178
:1022B0002001806880932001D0932901C0932801D8
:1022C00019C080912001806280932001D0932B015E
:1022D000C0932A010FC08091200188608093200163
:1022E000D0932D01C0932C0105C0C038D1050CF04E
:1022F00038CF32CFDF91CF911F910895893009F403
:1023000043C088F4843029F138F4823059F1E8F47C
:10231000813009F05EC023C0873061F188F58630D6
:1023200009F057C023C08D3009F440C020F48B3031
:10233000A9F1C0F52DC0803109F442C0813109F402
:1023400043C08F3009F045C037C0809180008F773F
:1023500003C0809180008F7D80938000089584B5B4
:102360008F7702C084B58F7D84BD08958091B000C1
:102370008F7703C08091B0008F7D8093B000089567
:10238000809190008F7707C0809190008F7D03C06F
:1023900080919000877F8093900008958091A000A5
:1023A0008F7707C08091A0008F7D03C08091A0002F
:1023B000877F8093A0000895809120018F7707C0C8
:1023C000809120018F7D03C080912001877F8093C1
:1023D00020010895CF93DF9390E0FC01E358FD4F77
:1023E0004491FC01ED53FD4F8491882341F190E02D
:1023F000880F991FFC01ED5DFC4F25913491D901A7
:10240000875F9C4FFC0185919491C82FD92F9FB76E
:10241000F8948C91611106C0409584238C93888137
:10242000842308C0623041F4242F209582238C93AA
:102430008881842B888302C0842B8C939FBFDF917B
:10244000CF9108950F931F93CF93DF931F92CDB732
:10245000DEB7282F30E0F901E95CFD4F8491F901E6
:10246000E358FD4F1491F901ED53FD4F0491002302
:10247000D1F0882321F069830E947E116981E02FC9
:10248000F0E0EE0FFF1FE75FFC4F85919491DC01B8
:102490009FB7F8948C91611103C01095812301C0FE
:1024A000812B8C939FBF0F90DF91CF911F910F9144
:1024B00008950F931F93CF93DF938230910510F40B
:1024C00082E090E0E091E807F091E90720E030E059
:1024D000C0E0D0E023C04081518148175907A8F0DF
:1024E0004817590761F482819381209719F09B83E3
:1024F0008A832EC09093E9078093E80729C02115AD
:10250000310529F04217530710F0A90102C0BE019E
:10251000DF0102811381EF019A01F8013097D9F6AA
:102520002115310509F1281B390B2430310590F4B0
:1025300012968D919C9113976115710521F0FB0105
:102540009383828304C09093E9078093E807FD0199
:10255000329644C0FD01E20FF31F81939193225004
:1025600031092D933C933AC02091E6073091E7075B
:10257000232B41F420911C0230911D023093E70778
:102580002093E60720911A0230911B022115310594
:1025900041F42DB73EB740911E0250911F02241BFB
:1025A000350BE091E607F091E707E217F307A0F497
:1025B0002E1B3F0B2817390778F0AC014E5F5F4F99
:1025C0002417350748F04E0F5F1F5093E7074093DD
:1025D000E6078193919302C0E0E0F0E0CF01DF9144
:1025E000CF911F910F910895EF92FF920F931F9338
:1025F000CF93DF93009709F48FC0DC0112971396F5
:102600001C921E921297E090E807F090E907E114FF
:10261000F10489F42D913C911197280F391F809175
:10262000E6079091E7078217930789F5B093E707CC
:10263000A093E60771C0E70120E030E001C0EA01A5
:10264000CA17DB0738F44A815B819E0141155105A9
:10265000B1F722C0BC0162507109FB01D383C28370
:1026600000811181AC01400F511F4C175D0761F4CF
:1026700048815981400F511F4E5F5F4F5183408306
:102680004A815B81538342832115310529F4B0933C
:10269000E907A093E80740C0F901B383A283E901E9
:1026A00069917991C60FD71FAC17BD0779F4DC018A
:1026B0005E914E91460F571F4E5F5F4F518340838F
:1026C00012968D919C91139793838283A0E0B0E042
:1026D00002C0D7017C01F701828193810097C9F77D
:1026E000C701029620813181820F931F2091E60756
:1026F0003091E7072817390779F4109729F41092D9
:10270000E9071092E80704C013961C921E921297D4
:10271000F092E707E092E607DF91CF911F910F91CA
:10272000FF90EF9008951F920F920FB60F92112411
:102730002F933F938F939F93AF93BF9380913505D2
:1027400090913605A0913705B091380530913D053F
:10275000232F2D5F2D3720F40196A11DB11D05C03B
:10276000232F2A570296A11DB11D20933D0580936A
:10277000350590933605A0933705B09338058091C1
:10278000390590913A05A0913B05B0913C05019621
:10279000A11DB11D8093390590933A05A0933B0587
:1027A000B0933C05BF91AF919F918F913F912F9135
:1027B0000F900FBE0F901F9018950F931F938FB718
:1027C000F894009135051091360520913705309128
:1027D00038058FBFB801C9011F910F9108950F935C
:1027E0001F939FB7F8940091390510913A052091F5
:1027F0003B0530913C0586B5A89B06C08F3F21F074
:102800000F5F1F4F2F4F3F4F9FBF322F212F102F92
:102810000027080F111D211D311D42E0000F111F5F
:10282000221F331F4A95D1F7B801C9011F910F919B
:102830000895CF92DF92EF92FF92CF93DF936B01D7
:102840007C010E94EF13EB010EC00E94EF136C1B82
:102850007D0B683E734038F081E0C81AD108E1086A
:10286000F108C851DC4FC114D104E104F10469F747
:10287000DF91CF91FF90EF90DF90CF900895789403
:1028800084B5826084BD84B5816084BD85B5826075
:1028900085BD85B5816085BDEEE6F0E08081816013
:1028A0008083E1E8F0E01082808182608083808113
:1028B00081608083E0E8F0E0808181608083E1EBEB
:1028C000F0E0808184608083E0EBF0E080818160D3
:1028D0008083E1E9F0E08081826080838081816093
:1028E0008083E0E9F0E0808181608083E1EAF0E0CC
:1028F000808182608083808181608083E0EAF0E073
:10290000808181608083E1E2F1E080818260808368
:10291000808181608083E0E2F1E08081816080835A
:10292000EAE7F0E080818460808380818260808338
:102930008081816080838081806880831092C10063
:1029400008950E943F140E94D40FC2E3D6E10E9472
:10295000770F2097E1F30E943216F9CFFC018485AE
:102960009585FC01E05CFF4F20813181FC01EE5B2D
:10297000FF4F80819181281B390B2F733327C901A9
:102980000895FC0184859585FC01E05CFF4F408142
:102990005181FC01EE5BFF4F2081318142175307CB
:1029A00041F00190F081E02DE80FF91F208130E027
:1029B00002C02FEF3FEFC9010895FC018485958582
:1029C000FC01E05CFF4F40815181FC01EE5BFF4F59
:1029D000208131814217530781F0A081B181A80F76
:1029E000B91F8C91208131812F5F3F4F2F73332787
:1029F00031832083282F30E002C02FEF3FEFC90141
:102A00000895FC0181A1882329F0A489B5898C91BE
:102A100086FFFBCF11A20895CF93DF93FC0126859B
:102A20003785D901A05CBF4F8D919C91119701967C
:102A30008F739927E901CE5BDF4F48815981841755
:102A40009507D9F30D90BC91A02DA20FB31F6C93E5
:102A5000A685B785A05CBF4F11969C938E93A689DF
:102A6000B7892C9181E090E0078C02C0880F991FF4
:102A70000A94E2F7282B2C9381E081A30488F5893E
:102A8000E02D80818064808381E090E0DF91CF91B0
:102A90000895FB01E05CFF4F208131812F5F3F4FA4
:102AA0002F733327DB01AE5BBF4F4D915C91241731
:102AB000350739F0A081B181A60FB71F8C93318300
:102AC0002083089508951F920F920FB60F9211243C
:102AD0000BB60F922F933F934F935F936F937F9318
:102AE0008F939F93AF93BF93EF93FF938091C00019
:102AF00082FD07C08091C60062EA77E00E94491516
:102B000002C08091C600FF91EF91BF91AF919F915C
:102B10008F917F916F915F914F913F912F910F9086
:102B20000BBE0F900FBE0F901F90189508951F9227
:102B30000F920FB60F9211240BB60F922F933F9363
:102B40004F935F936F937F938F939F93AF93BF93B5
:102B5000EF93FF938091C80082FD07C08091CE0063
:102B60006AE177E00E94491502C08091CE00FF9192
:102B7000EF91BF91AF919F918F917F916F915F91F5
:102B80004F913F912F910F900BBE0F900FBE0F9062
:102B90001F90189508951F920F920FB60F9211244F
:102BA0000BB60F922F933F934F935F936F937F9347
:102BB0008F939F93AF93BF93EF93FF938091D00038
:102BC00082FD07C08091D60062E976E00E94491537
:102BD00002C08091D600FF91EF91BF91AF919F917C
:102BE0008F917F916F915F914F913F912F910F90B6
:102BF0000BBE0F900FBE0F901F90189508951F9257
:102C00000F920FB60F9211240BB60F922F933F9392
:102C10004F935F936F937F938F939F93AF93BF93E4
:102C2000EF93FF938091300182FD07C080913601C0
:102C30006AE076E00E94491502C080913601FF915A
:102C4000EF91BF91AF919F918F917F916F915F9124
:102C50004F913F912F910F900BBE0F900FBE0F9091
:102C60001F90189584EA95E00E94AE14892B11F00C
:102C70000E94621582E895E00E94AE14892B11F043
:102C80000E94961580E695E00E94AE14892B11F003
:102C90000E94CA158EE395E00E94AE14892B11F0B4
:102CA0000C94FE1508951F920F920FB60F921124E7
:102CB0000BB60F922F933F938F939F93EF93FF93B6
:102CC00020919E0730919F078091A0079091A107C6
:102CD0002817390731F48091C1008F7D8093C1009E
:102CE00014C0E091A007F091A107E25AF84F2081AB
:102CF0008091A0079091A10701968F7399279093D7
:102D0000A1078093A0072093C600FF91EF919F91A8
:102D10008F913F912F910F900BBE0F900FBE0F9090
:102D20001F9018951F920F920FB60F9211240BB699
:102D30000F922F933F938F939F93EF93FF93209145
:102D400016073091170780911807909119072817D7
:102D5000390731F48091C9008F7D8093C90014C078
:102D6000E0911807F0911907EA52F94F20818091FC
:102D700018079091190701968F7399279093190757
:102D8000809318072093CE00FF91EF919F918F9130
:102D90003F912F910F900BBE0F900FBE0F901F9081
:102DA00018951F920F920FB60F9211240BB60F9227
:102DB0002F933F938F939F93EF93FF9320918E06D2
:102DC00030918F06809190069091910628173907CF
:102DD00031F48091D1008F7D8093D10014C0E091B7
:102DE0009006F0919106E25BF94F20818091900668
:102DF0009091910601968F739927909391068093F5
:102E000090062093D600FF91EF919F918F913F9173
:102E10002F910F900BBE0F900FBE0F901F90189523
:102E20001F920F920FB60F9211240BB60F922F9391
:102E30003F938F939F93EF93FF93209106063091DA
:102E4000070680910806909109062817390731F482
:102E5000809131018F7D8093310114C0E09108068B
:102E6000F0910906EA53FA4F20818091080690916B
:102E7000090601968F739927909309068093080697
:102E800020933601FF91EF919F918F913F912F9168
:102E90000F900BBE0F900FBE0F901F901895CF9202
:102EA000DF92EF92FF92CF93DF93EC016A017B01F7
:102EB000411581EE580761057105F9F0EC89FD892E
:102EC00081E090E008A002C0880F991F0A94E2F701
:102ED000808360E079E08DE390E0A70196010E9495
:102EE000AF20215031094109510956954795379531
:102EF0002795211580E1380798F0EC89FD8910822B
:102F000060E874E88EE190E0A70196010E94AF208E
:102F10002150310941095109569547953795279513
:102F2000E889F9893083EA89FB89208319A2EE892F
:102F3000FF89408181E090E09C010C8C02C0220F4F
:102F4000331F0A94E2F7422B4083EE89FF894081C8
:102F50009C010D8C02C0220F331F0A94E2F7422B12
:102F60004083EE89FF8940819C010E8C02C0220FB4
:102F7000331F0A94E2F7422B4083EE89FF892081B8
:102F80000F8C02C0880F991F0A94E2F78095822364
:102F90008083DF91CF91FF90EF90DF90CF900895E5
:102FA000CF931092A7051092A60588EE93E0A0E0BB
:102FB000B0E08093A8059093A905A093AA05B093CB
:102FC000AB052EEE32E03093A5052093A40542EA2E
:102FD00057E05093B1054093B0054EE557E050934C
:102FE000B3054093B20545EC50E05093B5054093CE
:102FF000B40544EC50E05093B7054093B60540EC5F
:1030000050E05093B9054093B80541EC50E050931F
:10301000BB054093BA0542EC50E05093BD05409388
:10302000BC0546EC50E05093BF054093BE05C4E09C
:10303000C093C005F3E0F093C105E7E0E093C2055B
:1030400075E07093C30561E06093C4051092850537
:10305000109284058093860590938705A093880538
:10306000B093890530938305209382054AE157E0A8
:1030700050938F0540938E0546ED56E05093910591
:10308000409390054DEC50E050939305409392058A
:103090004CEC50E0509395054093940548EC50E07B
:1030A000509397054093960549EC50E0509399054D
:1030B000409398054AEC50E050939B0540939A0545
:1030C0004EEC50E050939D0540939C05C0939E05A7
:1030D000F0939F05E093A0057093A1056093A2056E
:1030E00010926305109262058093640590936505C4
:1030F000A0936605B0936705309361052093600542
:1031000042E956E050936D0540936C054EE456E05D
:1031100050936F0540936E0545ED50E05093710557
:103120004093700544ED50E0509373054093720551
:1031300040ED50E0509375054093740541ED50E02B
:10314000509377054093760542ED50E05093790512
:103150004093780546ED50E050937B0540937A0507
:10316000C0937C05F0937D05E0937E0570937F0509
:1031700060938005109241051092400580934205AE
:1031800090934305A0934405B093450530933F05C4
:1031900020933E058AE096E090934B0580934A0584
:1031A00086EC95E090934D0580934C0585E391E086
:1031B00090934F0580934E0584E391E090935105E1
:1031C0008093500580E391E09093530580935205DE
:1031D00081E391E0909355058093540582E391E05B
:1031E000909357058093560586E391E09093590597
:1031F00080935805C0935A05F0935B05E0935C05F6
:1032000070935D0560935E05CF910895CF92DF9234
:10321000EF92FF920F931F93CF93DF936C01EB011B
:103220007A01E60EF71E00E010E00BC06991D601AE
:10323000ED91FC910190F081E02DC6011995080FE8
:10324000191FCE15DF0591F7C801DF91CF911F91AE
:103250000F91FF90EF90DF90CF9008956115710569
:1032600081F0DB010D900020E9F7AD0141505109DB
:10327000461B570BDC01ED91FC910280F381E02DA0
:10328000199480E090E00895EF92FF920F931F93BE
:10329000CF93DF937C01EB0100E010E0FE0121966B
:1032A0006491662351F0F701A081B181ED91FC9109
:1032B000C7011995080F191FF1CFC801DF91CF91F0
:1032C0001F910F91FF90EF900895AF92BF92CF9210
:1032D000DF92EF92FF920F931F93CF93DF937C01C6
:1032E0006B0100E010E0C0E0D0E011C0D701ED912B
:1032F000FC91A080B180B801C6010E94241D682FF6
:10330000C701F5011995C80FD91F0F5F1F4FD601CF
:1033100014968D919C9115970817190738F3CE01D3
:10332000DF91CF911F910F91FF90EF90DF90CF90A1
:10333000BF90AF9008950C942E19DC01ED91FC9193
:103340000190F081E02D19940F931F93CF93DF9399
:10335000EC016DE00E949D198C016AE0CE010E9493
:103360009D199C01200F311FC901DF91CF911F9141
:103370000F9108950F931F93CF93DF93EC010E9459
:1033800044198C01CE010E94A4199C01200F311F09
:10339000C901DF91CF911F910F9108950F931F9352
:1033A000CF93DF93EC010E9465198C01CE010E943E
:1033B000A4199C01200F311FC901DF91CF911F91EA
:1033C0000F9108950F931F93CF93DF93EC010E9409
:1033D0002E198C01CE010E94A4199801280F391FC3
:1033E000C901DF91CF911F910F9108950F931F9302
:1033F000CF93DF93EC010E949D198C01CE010E94B6
:10340000A4199C01200F311FC901DF91CF911F9199
:103410000F9108954F925F926F927F929F92AF9219
:10342000BF92CF92DF92EF92FF920F931F93CF93B1
:10343000DF93CDB7DEB7A1970FB6F894DEBF0FBE0E
:10344000CDBF5C016A017B01922E19A281E0821737
:1034500010F08AE0982E8E010F5D1F4F492C512CE1
:10346000612C712CC701B601A30192010E94AF200B
:103470008C2D929E80191124015011098A3014F468
:10348000805D01C0895CF801808369017A01C11403
:10349000D104E104F10431F7B801C5010E942E19ED
:1034A000A1960FB6F894DEBF0FBECDBFDF91CF91CE
:1034B0001F910F91FF90EF90DF90CF90BF90AF9052
:1034C0009F907F906F905F904F90089521153105E8
:1034D00041F4DC01ED91FC910190F081E02D642F2D
:1034E00019940C940A1A9A01AB0160E070E00C94F4
:1034F000661A9A01462F50E060E070E00C94661A5C
:103500000F931F93CF93DF93EC019A01462F50E066
:1035100060E070E00E94661A8C01CE010E94A4193E
:103520009801280F391FC901DF91CF911F910F9189
:103530000895CF92DF92EF92FF920F931F93CF9354
:10354000DF93EC016A017B012115310579F4E881F3
:10355000F9810190F081E02D642FDF91CF911F91CF
:103560000F91FF90EF90DF90CF9019942A303105A2
:1035700019F477FD0EC02AE0B701A601CE01DF9154
:10358000CF911F910F91FF90EF90DF90CF900C940F
:103590000A1A6DE20E949D198C0144275527BA0131
:1035A0004C195D096E097F092AE0CE010E940A1AB2
:1035B000080F191FC801DF91CF911F910F91FF9044
:1035C000EF90DF90CF9008959A01AB01662757FDE9
:1035D0006095762F0C94991A7F928F929F92AF925A
:1035E000BF92CF92DF92EF92FF920F931F93CF93F0
:1035F000DF93EC016A017B01122F9A01AB01C70135
:10360000B6010E947B20882319F06AEF72E032C075
:1036100046015701E894B7F82FEF3FEF4FE75FE718
:10362000C501B4010E947B2081110DC02FEF3FEF37
:103630004FE75FE7C501B4010E94C51E18161CF4D0
:103640006EEF72E017C02FEF3FEF4FE75FE4C70167
:10365000B6010E94142018160CF40AC02FEF3FEF99
:103660004FE75FECC701B6010E94C51E87FF12C07D
:1036700062E073E0CE01DF91CF911F910F91FF9037
:10368000EF90DF90CF90BF90AF909F908F907F9002
:103690000C942E1920E030E0A901C701B6010E9468
:1036A000C51E87FF0AC06DE2CE010E949D195C0114
:1036B000F7FAF094F7F8F09402C0A12CB12C00E0D6
:1036C00060E070E080E09FE307C020E030E040E28F
:1036D00051E40E94C91E0F5F0113F7CF262F372F29
:1036E000482F592FC701B6010E94611E762E872EE2
:1036F000982EC92E0E94361FD62EE72EF82E092F9F
:103700000E94621F9B01AC01672D782D892D9C2D95
:103710000E94601EC62E972E882E792E2AE04D2DEF
:103720005E2D6F2D702FCE010E940A1A7C01EA0CCB
:10373000FB1C1123B9F166E073E0CE010E942E1943
:10374000E80EF91E2FC020E030E040E251E46C2D7D
:10375000792D882D972D0E941820762E072F6C0129
:103760009D2D0E94311F4B01AA2497FCA094BA2CD6
:103770002AE030E0B501A401CE010E94991AE80EBA
:10378000F91EC501B4010E94641F9B01AC01672DA5
:10379000702F8C2D9D2D0E94601EC62E972E882E78
:1037A000792E11501111CFCFC701DF91CF911F9109
:1037B0000F91FF90EF90DF90CF90BF90AF909F90D0
:1037C0008F907F9008950C94EC1AFC018081918178
:1037D0000C94F412CF93DF93EC01888199810097C8
:1037E00011F00E94F412198218821D821C821B8221
:1037F0001A82DF91CF9108950F931F93CF93DF9398
:10380000EC018B016F5F7F4F888199810E947C1D45
:10381000009731F0998388831B830A8381E001C07C
:1038200080E0DF91CF911F910F910895CF93DF93A7
:10383000EC0188819981892B31F08A819B818617DF
:10384000970708F00CC0CE010E94FC1B882349F0AA
:103850008C819D81892B19F4E881F981108281E0A6
:1038600001C080E0DF91CF910895EF92FF920F9316
:103870001F93CF93DF93EC017B018A01BA010E9471
:10388000161C811104C0CE010E94EA1B07C01D83D3
:103890000C83B701888199810E944721CE01DF9175
:1038A000CF911F910F91FF90EF900895DC01119639
:1038B0001C921E9213961C921E92129715961C92A1
:1038C0001E92149716961C926115710559F0DB0132
:1038D0000D900020E9F7AD0141505109461B570BEF
:1038E0000C94351C0895CF93DF93EC01FB018617F0
:1038F000970761F0608171816115710529F044813C
:1039000055810E94351C02C00E94EA1BCE01DF9146
:10391000CF910895FC0111821082138212821582C8
:10392000148216820C94731CCF93DF93D82FC92F67
:103930006115710561F0DB010D900020E9F7AD0123
:1039400041505109461B570B0E94351C02C00E9472
:10395000EA1B8D2F9C2FDF91CF9108950F931F931A
:10396000CF93DF93CDB7DEB762970FB6F894DEBF83
:103970000FBECDBF8C01CB01F801118210821382E2
:10398000128215821482168250E0BE016F5F7F4F53
:103990000E948F21BE016F5F7F4FC8010E94941C5F
:1039A00062960FB6F894DEBF0FBECDBFDF91CF9108
:1039B0001F910F910895EF92FF920F931F93CF9352
:1039C000DF93EC017B010C811D816115710511F400
:1039D00080E016C04115510591F0040F151FB80184
:1039E0000E94161C8823A1F3288139818C819D8136
:1039F000B701820F931F0E9447211D830C8381E032
:103A0000DF91CF911F910F91FF90EF900895CF9389
:103A1000DF93D82FC92F6115710569F0DB010D9077
:103A20000020E9F7AD0141505109461B570B0E9498
:103A3000DB1C811104C08D2F9C2F0E94EA1B8D2F4F
:103A40009C2FDF91CF910895FC012481358162176D
:103A5000730748F480819181009729F0FC01E60FFB
:103A6000F71F8081089580E008954F925F926F92D2
:103A70007F92AF92BF92CF92DF92EF92FF920F931D
:103A80001F93CF93DF93CDB7DEB729013A01621BB5
:103A9000730B840B950B2A893B894C895D892A1904
:103AA0003B094C095D092A8B3B8B4C8B5D8B9B0141
:103AB000AC016A897B898C899D890E947F20E418EA
:103AC000F50806091709A80197010E94D1202A0DBF
:103AD0003B1D4C1D5D1DB901CA01DF91CF911F91A6
:103AE0000F91FF90EF90DF90CF90BF90AF907F90BD
:103AF0006F905F904F9008958F929F92AF92BF9278
:103B0000CF92DF92EF92FF920F931F93CF93DF93A9
:103B1000EC01009779F4CB01DF91CF911F910F91C8
:103B2000FF90EF90DF90CF90BF90AF909F908F90DD
:103B30000C945912DC01A60FB71FFC013297AE1787
:103B4000BF0718F4C0E0D0E0ADC0008111810617B6
:103B50001707B0F00530110508F4A4C0C801049798
:103B60008617970708F49EC002501109061B170B11
:103B70000D931D9371836083CD010E94F41292C056
:103B80007B01E01AF10A5C01A00EB11EE091E8078A
:103B9000F091E907812C912C80E090E04CC0EA156F
:103BA000FB05F1F5408151816A0122E0C20ED11C72
:103BB000CE14DF04A8F19A012E193F097901690199
:103BC00032E0C30ED11C2EEFA22EBB24BA94AC0E51
:103BD000BD1E25E0C216D10478F0428153811396B0
:103BE0005C934E9312971196FC92EE92F5017183BD
:103BF00060833A2F2B2F09C00E5F1F4F040F151F34
:103C0000D5010D931C9332812381009721F0FC0193
:103C10003283238347C03093E8072093E90742C0EB
:103C2000808191818816990608F44C015281438164
:103C3000CF01E52FF42F309709F0B1CF8091E6073F
:103C40009091E7078A159B05F1F486169706D8F43C
:103C500080911A0290911B02009741F48DB79EB794
:103C600020911E0230911F02821B930BA817B907E7
:103C700008F068CFB093E707A093E607FE013297FC
:103C8000718360830FC0CB010E9459127C010097A1
:103C900009F458CFA801BE010E943E21CE010E9426
:103CA000F412E701CE01DF91CF911F910F91FF90A8
:103CB000EF90DF90CF90BF90AF909F908F9008953E
:103CC0005058BB27AA270ED075C166D130F06BD1F2
:103CD00020F031F49F3F11F41EF45BC10EF4E09527
:103CE000E7FB51C1E92F77D180F3BA176207730759
:103CF0008407950718F071F49EF58FC10EF4E095D6
:103D00000B2EBA2FA02D0B01B90190010C01CA0195
:103D1000A0011124FF27591B99F0593F50F4503E40
:103D200068F11A16F040A22F232F342F4427585F32
:103D3000F3CF469537952795A795F0405395C9F74A
:103D40007EF41F16BA0B620B730B840BBAF0915002
:103D5000A1F0FF0FBB1F661F771F881FC2F70EC0A1
:103D6000BA0F621F731F841F48F487957795679574
:103D7000B795F7959E3F08F0B3CF9395880F08F05D
:103D80009927EE0F979587950895D9D008F481E08B
:103D900008950CD00FC107D140F0FED030F021F4CF
:103DA0005F3F19F0F0C0511139C1F3C014D198F33D
:103DB0009923C9F35523B1F3951B550BBB27AA27AC
:103DC00062177307840738F09F5F5F4F220F331F1E
:103DD000441FAA1FA9F333D00E2E3AF0E0E830D0EA
:103DE00091505040E695001CCAF729D0FE2F27D0ED
:103DF000660F771F881FBB1F261737074807AB07BB
:103E0000B0E809F0BB0B802DBF01FF2793585F4F2F
:103E10002AF09E3F510568F0B6C000C15F3FECF349
:103E2000983EDCF3869577956795B795F7959F5FF4
:103E3000C9F7880F911D9695879597F90895E1E048
:103E4000660F771F881FBB1F621773078407BA07A7
:103E500020F0621B730B840BBA0BEE1F88F7E09502
:103E6000089504D06894B111D9C00895BCD088F0E9
:103E70009F5790F0B92F9927B751A0F0D1F0660F56
:103E8000771F881F991F1AF0BA95C9F712C0B13071
:103E900081F0C3D0B1E00895C0C0672F782F882784
:103EA000B85F39F0B93FCCF3869577956795B395B0
:103EB000D9F73EF490958095709561957F4F8F4F1F
:103EC0009F4F0895E89409C097FB3EF49095809524
:103ED000709561957F4F8F4F9F4F9923A9F0F92FD0
:103EE00096E9BB279395F695879577956795B7954E
:103EF000F111F8CFFAF4BB0F11F460FF1BC06F5F34
:103F00007F4F8F4F9F4F16C0882311F096E911C045
:103F1000772321F09EE8872F762F05C0662371F066
:103F200096E8862F70E060E02AF09A95660F771F7A
:103F3000881FDAF7880F9695879597F90895990F56
:103F40000008550FAA0BE0E8FEEF16161706E80763
:103F5000F907C0F012161306E407F50798F0621B84
:103F6000730B840B950B39F40A2661F0232B242B59
:103F7000252B21F408950A2609F4A140A6958FEF78
:103F8000811D811D089597F99F6780E870E060E0CA
:103F900008959FEF80EC089500240A9416161706E2
:103FA00018060906089500240A941216130614062A
:103FB00005060895092E0394000C11F4882352F08D
:103FC000BB0F40F4BF2B11F460FF04C06F5F7F4F45
:103FD0008F4F9F4F089557FD9058440F551F59F02C
:103FE0005F3F71F04795880F97FB991F61F09F3FE6
:103FF00079F087950895121613061406551FF2CF0F
:104000004695F1DF08C0161617061806991FF1CF5E
:1040100086957105610508940895E894BB27662785
:104020007727CB0197F908958ADF08F48FEF089579
:104030000BD0C0CFB1DF28F0B6DF18F0952309F020
:10404000A2CFA7CF1124EACFC6DFA0F3959FD1F36B
:10405000950F50E0551F629FF001729FBB27F00D36
:10406000B11D639FAA27F00DB11DAA1F649F66278B
:10407000B00DA11D661F829F2227B00DA11D621FDA
:10408000739FB00DA11D621F839FA00D611D221F94
:10409000749F3327A00D611D231F849F600D211D78
:1040A000822F762F6A2F11249F5750408AF0E1F01B
:1040B00088234AF0EE0FFF1FBB1F661F771F881F64
:1040C00091505040A9F79E3F510570F05CCFA6CFAC
:1040D0005F3FECF3983EDCF3869577956795B7954F
:1040E000F795E7959F5FC1F7FE2B880F911D969579
:1040F000879597F9089523DF880B990B0895DB01C5
:104100008F939F930E94ED20BF91AF91A29F800D4E
:10411000911DA39F900DB29F900D11240895991B9E
:1041200079E004C0991F961708F0961B881F7A95AE
:10413000C9F78095089597FB072E16F4009407D0D1
:1041400077FD09D00E94F82007FC05D03EF4909539
:1041500081959F4F0895709561957F4F0895A1E2D5
:104160001A2EAA1BBB1BFD010DC0AA1FBB1FEE1FF1
:10417000FF1FA217B307E407F50720F0A21BB30B3C
:10418000E40BF50B661F771F881F991F1A9469F7B8
:1041900060957095809590959B01AC01BD01CF0114
:1041A0000895052E97FB16F4009407D057FD0DD007
:1041B0000E94AF2007FC09D07EF490958095709501
:1041C00061957F4F8F4F9F4F089550954095309543
:1041D00021953F4F4F4F5F4F08950E941021A59F9B
:1041E000900DB49F900DA49F800D911D11240895F2
:1041F000AA1BBB1B51E107C0AA1FBB1FA617B7070D
:1042000010F0A61BB70B881F991F5A95A9F7809528
:104210009095BC01CD0108950790F691E02D199479
:10422000A29FB001B39FC001A39F01D0B29F700DA8
:10423000811D1124911D0895FC0188279927E89478
:1042400021912032E9F3293010F02E30C8F32B32BF
:1042500041F02D3239F4689404C00E94B021820FDD
:10426000911D219120532A30C0F31EF49095819521
:104270009F4F089548E053E00C946821FB01DC0156
:1042800002C001900D9241505040D8F70895FB01B3
:10429000DC0101900D920020E1F70895FB0151919E
:1042A0005523A9F0BF01DC014D9145174111E1F7FC
:1042B00059F4CD010190002049F04D914015411174
:1042C000C9F3FB014111EFCF81E090E00197089520
:1042D000FA01A191B081009719F41097E1F0CD0196
:1042E000DC01CD010D90002011F4C00113C0FB01D1
:1042F0002191222319F02015D9F7F3CFFB01219149
:10430000201519F41E92119606C02223C1F70D90B4
:104310000020A1F7D001FA01A193B0830895FB0119
:104320009F01E8944230C4F04532B4F44A3029F495
:1043300097FB1EF4909581959F4F642F77270E94DD
:10434000F820805D8A330CF0895D8193CB01009762
:10435000A1F716F45DE251931082C9010C94CE21AD
:104360007AE0979F902D879F802D910D11240895BD
:10437000F999FECF92BD81BDF89A992780B508952D
:10438000262FF999FECF1FBA92BD81BD20BD0FB671
:10439000F894FA9AF99A0FBE01960895DC01FC018F
:1043A000672F71917723E1F7329704C07C916D9369
:1043B00070836291AE17BF07C8F3089513E0CCE491
:1043C000D3E000E006C022970109FE010BBF0E9466
:1043D0000C21C435D10780E00807A9F7F894FFCF76
:1043E000DC05DC0501DC05DC05DC05DC05DC05DCC9
:1043F00005DC05DC0505001000010000EA0780006F
:10440000202C28293B0000000000C802C702676F6B
:104410000073746172740073746F700000000000A8
:104420005E051106310030005F5F006C69676874DB
:104430000000000000E30AF60A7265706F727453A0
:10444000657474696E67002C00726361700075702A
:104450006461746553657474696E670000000000E0
:104460003E0B3F0B74696C7400000000001C0CB61E
:104470000C657363706F7765720000000000EA0CD2
:10448000580D6C6F673A5761746368646F67207783
:1044900061732074726967676572656420616E6418
:1044A0002074686520666F6C6C6F77696E67207723
:1044B000617320726561642066726F6D204545509E
:1044C000524F4D3B006C6F673A00000000000C1526
:1044D0000619AE14DD14C11401156E616E00696E0B
:0844E00066006F7666002E00F5
:00000001FF
